:020000040802F0
:10000000688500108905020847510208253F02084B
:100010002F510208073F0208535102080000000058
:100020000000000000000000000000004104020881
:100030001F3F020800000000F90402085D050208E5
:10004000A3050208A3050208A3050208A3050208E8
:10005000A3050208A3050208A3050208A3050208D8
:10006000A3050208A3050208A3050208A3050208C8
:10007000A3050208A3050208A3050208A3050208B8
:10008000A3050208A305020865FD0408F9FF04089A
:10009000EDFF0408A3050208F3FF0408A305020806
:1000A00065130508A3050208B1130508A305020896
:1000B000A3050208A3050208A3050208A305020878
:1000C000A3050208A3050208A3050208F50E05080A
:1000D000FB0E0508A3050208A3050208A3050208F4
:1000E0003D0905084D510208A3050208A3050208B1
:1000F000A305020829140508A3050208A3050208A0
:10010000A3050208A3050208A3050208010F0508BC
:10011000A3050208A3050208D91305080114050860
:10012000A3050208A3050208A3050208A305020807
:10013000A3050208D5070508A30502080B0005085A
:10014000FFFF0408A305020805000508A30502082F
:10015000A3050208A3050208A3050208A3050208D7
:10016000A3050208A3050208A3050208A3050208C7
:10017000A3050208A3050208A3050208A3050208B7
:10018000A3050208A305020800F002F800F014F924
:1001900014A696E8000CB244B344DA4501D100F04D
:1001A0000BF9BAE80F000FA696E83000A5EB04059E
:1001B00004EB0607AAEB0704A7F101074FEA1515A0
:1001C0004FEA3414A4F10104AC4201D300F0F4F876
:1001D00013F0010F18BFFB1A43F0010300F001F800
:1001E000DBE71847A4990400D4990400704710B5C0
:1001F000002003F083F803F015F810BD12F0BEBE26
:100200000202035FE877D401000002080000060044
:1002100000000020C0FF01000000000000000000FE
:1002200007614D4334303076330000000000000099
:1002300001000100010000004558540000000000CA
:100240004A616E20313620323032352031363A3232
:10025000373A3239000000000000000000000000C2
:10026000000000000000000000000000000000008E
:10027000000000000000000000000000000000007E
:100280000A444FF0000C10F8013B13F0070408BFBC
:1002900010F8014B1D1108BF10F8015B641E05D05A
:1002A00010F8016B641E01F8016BF9D113F0080F0F
:1002B0001EBF10F8014BAD1C0C1B09D16D1E58BFA1
:1002C00001F801CBFAD505E014F8016B01F8016BD8
:1002D0006D1EF9D59142D6D370470000002300244B
:1002E00000250026103A28BF78C1FBD8520728BF46
:1002F00030C148BF0B6070476E2902F0048470293A
:1003000001F05B8366293FF0648465293FF06184D6
:1003100067293FF05E8461293FF05D8403681B0A12
:1003200028BF41F08001692901F08E82642901F023
:100330008B82752901F088826F2902F0B9847829AF
:1003400001F02783E92901F0BB82E42901F0B8829A
:10035000F52901F0B582EF2902F0B684F82901F001
:1003600026830368DB0928BF41F08001632902F07E
:10037000F282732902F0F782E32903F09D81F329C9
:1003800003F0A281002070471FB53FF0CCFB9DE831
:10039000030001F013FF02F05FFB040000200021C6
:1003A0003FF026F8401C6060002000213FF00AF872
:1003B000E06002F0BFFE1FBD02F0D0FF1146FFF764
:1003C000E3FF29F099FB03F0A7FA03B4FFF70FFF4F
:1003D00003BC02F033FB000080F309887047EFF3A1
:1003E00009807047684680F3098804480078C00790
:1003F00014BF0220032080F314887047F803001014
:10040000DFF818C0EFF305831B0618BF6047EFF352
:100410001483DB0708BF604700DF70479596050827
:10042000DFF818C0EFF305831B0618BF6047EFF332
:100430001483DB0708BF604700DF70470D9705088E
:10044000EFF30980816911F8021CE1BB90E80F10FD
:1004500010B5E047BDE81040EFF3098C8CE80700C9
:10046000214B93E80600914208BF704741B91EF046
:10047000100F16D11D49086820F00100086010E037
:100480001EF0100F06BF2CED108A0120002081F80D
:1004900038002CE9F00FC1F83CC00CB43AF01EFE55
:1004A0000CBC1A60D2F83CC0BCE8F00F92F83800DF
:1004B00000280EBF6FF0020E6FF0120EBCEC108A17
:1004C0008CF30988704710B5094A1268914209D81F
:1004D000084C54F8214090E80F10A047EFF3098C26
:1004E0008CE80F0010BD00006C03001034EF00E03A
:1004F00084FC040884FC040810B53AF0E9FCBDE86B
:100500001040154B93E80600914208BF7047EFF387
:10051000098C1EF0100F06BF2CED108A0120002060
:1005200081F838002CE9F00FC1F83CC00CB43AF067
:10053000D5FD0CBC1A60D2F83CC0BCE8F00F92F8B4
:10054000380000280EBF6FF0020E6FF0120EBCECE8
:10055000108A8CF3098870476C03001010B53AF0CC
:10056000E1FDCCE710B537F051FE3AF0DBFDC6E710
:1005700000487047003000000048704700FC010050
:10058000401EFDD1704700000948804709480047D8
:10059000FEE7FEE7FEE7FEE7FEE7FEE7FEE7FEE733
:1005A000FEE7FEE704480549054A064B7047000090
:1005B000111205088901020800000020688500105A
:1005C00000FC012068550010F7B514466E4600295E
:1005D00014BF0125002588480078E8B100F07AFAB8
:1005E0002946304631F004FCC5B2012C0DD18348B8
:1005F0000099834CC0F82610014620684022001D57
:1006000001F02EFC206800F040FE00F06DFA012D94
:1006100002BF002003B0F0BD4FF0FF3003B0F0BDCB
:1006200038B56C460090002914BF0125002572489A
:10063000007860B100F04EFA2946204631F0D8FB30
:10064000C4B200F051FA012C04BF002038BD4FF0B5
:10065000FF3038BD2DE9F34767480D46E94600787D
:100660004FF0FF37F0B1674E3088D8B100F032FA62
:1006700030880024002888BFDFF88C810FD900BFA4
:10068000C4EBC40008EB4000042249460A3001F0E4
:100690009CFB60B1601CC4B230888442F0D300F08F
:1006A00023FA11E002B04FF0FF30BDE8F087C4EB51
:1006B000C40008EB4000041D00F016FA00271DB12D
:1006C00020682860A088A88002B03846BDE8F0877E
:1006D0002DE9F1434848E8464FF0FF360078E8B18D
:1006E000484D2888D0B100F0F5F92888002400286A
:1006F00088BF454F0FD900BFC4EBC40007EB4000D3
:10070000042241460A3001F060FB58B1601CC4B2BB
:1007100028888442F0D300F0E7F919E04FF0FF3069
:10072000BDE8F883C4EBC40007EB4000041D00F0F3
:10073000DBF906223549204601F047FB58B1062275
:100740003349204601F041FB002818BF002602D0A3
:100750003046BDE8F8834FF0FF36F9E700207047D8
:100760000020704710B5254CFF21204631F07EF95E
:1007700028484FF4C1634FF0080C0169C4F8061013
:10078000828A6281A3814FF48073E381A4F810C050
:100790004FF0060C84F812C04FF0040C84F813C01C
:1007A000A382C4F8161062838069E06104F120001E
:1007B00031F04FF90020C4F82600C4F82A00C4F82C
:1007C0002E00C4F83200C4F836000D4AC4F83A00CE
:1007D000E08704F1400111602A220A80488010BDA0
:1007E00090F82010202984BF4FF0FF30704710B5DB
:1007F00000F0F5FC002010BD08020010F8200010E9
:10080000000200103E03001060240010DAFB05080F
:10081000E0FB050880210010B84A126F02B11047B2
:10082000FEE770B50C46B8B10546FFF797FF0646E0
:10083000284600F091FC0644284600F029FA0644B8
:10084000284600F06CFA0644284600F067FC304465
:10085000002C18BF206070BDE120A84AA8A1126F2B
:1008600012B19047002070BDFEE710B5A34C606F39
:10087000002808BF10BD80470028AB49086018BF9A
:1008800010BDE020226FA9A112B1BDE810401047B1
:10089000FEE770B5A44D416F81B1816F974C00297F
:1008A0001FBFC16F0029D0F8800000280DD0606FF5
:1008B000002818D08047286080B114E000218167AB
:1008C000C167C0F8801029600DE0226FE320A7A166
:1008D0001AB190474FF0FF3070BDFEE7226FE02065
:1008E00092A112B19047002070BDFEE710B5D8214B
:1008F000824801F0DDFB8C490020086010BD2DE925
:10090000F0417E4C8846050007D02A6F2267287880
:1009100050B1E420A0A132B12EE0226FE120ABA1C2
:10092000002A29D1FEE7FEE7B1480078012804D06B
:100930002846FFF755FF20B11AE0E020ADA1DAB953
:10094000FEE7D8216D4801F0B3FB774F002628461B
:100950003E6000F01FFC58B9284600F09FF938B9F6
:10096000284600F0E2F918B9284600F0DDFB40B156
:10097000AA49226FE3205AB190474FF0FF30BDE8FB
:10098000F08141462846FFF7EBFE002875D100E0D4
:10099000FEE72846FFF7E2FE20F0030080444146D0
:1009A000284600F0DBFB002867D1284600F0D4FB86
:1009B00020F0030080444146284600F06BF90028EF
:1009C0005BD1284600F064F920F0030080444146E2
:1009D000284600F0A6F900284FD1284600F09FF9DC
:1009E00020F0030000EB0801284600F099FB0028E6
:1009F00043D1284600F092FBD82229463F4801F017
:100A0000B6FA3E4D2846FFF7ADFE002835D1686F97
:100A100060B1A96F00291FBFE96F0029D5F88010C8
:100A2000002909D08047386068B111E0AE67EE67F1
:100A3000C5F880603E600BE0226FE3204BA10AB155
:100A400090471AE0FEE7226FE02038A12AB19047D4
:100A5000284600F085FB80B900E0FEE7284600F05C
:100A60001BF950B9284600F05EF930B9284600F06D
:100A700059FB002808BFBDE8F0814FF0FF30BDE80A
:100A8000F08170B504000D4616D0FFF767FE0646EC
:100A9000204600F061FB0644204600F0F9F80644C9
:100AA000204600F03CF90644204600F037FB304475
:100AB000002D18BF286070BDE120104A10A1126FF0
:100AC00012B19047002070BDFEE718E70020704784
:100AD0000020704714480068002808BF7047074A84
:100AE000D2F88010926F10470F480068002808BFA6
:100AF00070470249C96F084700687047802100109D
:100B00006970616C5F626173655F6D656D6F72794D
:100B10005F67657473697A652829206E65656473FB
:100B20002061206366670000040200106970616C38
:100B30005F626173655F6869645F74687265616450
:100B40007361666574795F696E697428293A2063F8
:100B5000616E6E6F7420616C6C6F6361746520747C
:100B60006865206D75746578000000006970616CBF
:100B70005F626173655F696E697469616C697365F1
:100B80002829206E65656473206F73616C2066751B
:100B90006E6374696F6E73006970616C5F6261731C
:100BA000655F696E697469616C69736528293A20AB
:100BB000756E737570706F72746564207463702FD6
:100BC000697020737461636B000000006970616C70
:100BD0005F626173655F696E697469616C69736591
:100BE00028293A206D697373696E67206366670010
:100BF000080200106970616C5F626173655F696E05
:100C0000697469616C69736528293A20616C726541
:100C10006164792073746172746564009C050608D0
:100C200031B524486C46007838B1234890F82C0040
:100C300018B19DF80000EF2802D04FF0FF3038BD0A
:100C4000FFF748FF204635F0F1FD002814BF0024CF
:100C50004FF0FF34FFF748FF204638BD31B5154847
:100C60006C46007888B1144890F82C0068B1FFF702
:100C700031FF204635F002FE00280CBF4FF0FF3454
:100C80000024FFF731FF204638BD4FF0FF3038BD5C
:100C900000207047002070470020704790F82D100A
:100CA000062984BF4FF0FF30704710B500F019FBE4
:100CB000002010BD0802001080210010224810B54D
:100CC000406848B12148017801290CD00121017008
:100CD00036F088F8002010BD1DA1E120FFF79CFD33
:100CE0004FF0FF3010BD24A1E020FFF795FD4FF03D
:100CF000FF3010BD10B5FFF7EDFE36F08FFABDE8FE
:100D00001040FFF7F1BE10B5FFF7E4FE3EF036FAF3
:100D1000BDE81040FFF7E8BE0B4840687047002070
:100D2000704700207047002070470189B1F5C05F0F
:100D300084BF4FF0FF30704710B50021034A117097
:100D400000F027FB002010BD8021001008020010D9
:100D50006970616C5F7379735F7374617274282951
:100D60003A206D697373696E6720636F6E66696799
:100D700075726174696F6E006970616C5F7379730D
:100D80005F737461727428293A2063616E6E6F74A8
:100D900020737461727420616761696E00000000E5
:100DA00008B1062801D900207047F0B515460A465B
:100DB000E64900EB400085B001EBC000A0F118044B
:100DC00050F8080C0A9F1E4698B11046FFF794FE93
:100DD0000346E06820B1984204BF2089A84208D1A8
:100DE0000396ADF808700095D4E904C002AA214624
:100DF000E04705B00020F0BD4107090EC0F3C00276
:100E000041EA0211C0F3001210B541EAC201C0F379
:100E1000401041EA8004CE480078002808BF10BD89
:100E2000FFF758FECB4A012120463EF0CBF9C0B176
:100E3000C64900EB400201EBC20404F8180C002084
:100E400024F8160C44F8140C24F8100C44F80C0C7C
:100E500044F8080C44F8040CFFF746FEA4F118000F
:100E600010BDFFF741FE002010BD70B504001CBF8F
:100E70002078002821D0FFF72DFE6088002518B1CA
:100E800020783EF081F9658020783EF0FDF9064635
:100E90002078AE4900EB400001EBC00000F8185C80
:100EA0002570658065602581E56025616561FFF7D6
:100EB0001BFE002E1CBF002070BD4FF0FF3070BD28
:100EC00070B515460E4604001DBF20780028002D81
:100ED0004FF0FF3008BF70BDFFF7FCFD608820B108
:100EE00020783EF051F9002060809849002000BF32
:100EF00000EB400201EBC2025288AA4210D0401C13
:100F0000C0B20628F4D3207829463EF07FF910F0CD
:100F1000FF0F05D065806660FFF7E6FD002070BD1D
:100F2000FFF7E2FD4FF0FF3070BD2DE9F04790462E
:100F30000F46040019BF207800284FF0FF30BDE8AD
:100F4000F087FFF7C7FD608850BB20780026454634
:100F5000002818BF002D2DD0FFF7BCFD60884FF092
:100F6000000920B120783EF00FF9A4F802907749EB
:100F7000002000BF00EB400201EBC2025288AA42EF
:100F800016D0401CC0B20628F4D3207829463EF083
:100F90003DF910F0FF0F0BD065806660FFF7A4FDF0
:100FA000A4F80880E760FFF79FFD0020BDE8F08708
:100FB000FFF79AFDFFF798FD4FF0FF30BDE8F0878F
:100FC00010B5040019BF207800284FF0FF3010BD85
:100FD000FFF780FD00202081E060FFF785FD002005
:100FE00010BD2DE9FF4182B098460C46050004AFC4
:100FF0001CBF2878002828D06888002818BF002C3B
:1010000023D0606800281CBF208800281DD0FFF76F
:1010100061FD20883EF0CEF806001BD02288616872
:1010200000F01EFF2088009028783346424639465B
:101030003EF042F900280CBF4FF0FF340024FFF7C8
:1010400053FD06B02046BDE8F08106B04FF0FF30FA
:10105000BDE8F081FFF748FD06B04FF0FF30BDE876
:10106000F0812DE9F04383B00C4605001CBF688871
:1010700000283CD0E86800281CBF2889002836D00A
:10108000FFF728FDE86801902878B5F808900DF181
:1010900004084FF0FF3600281CBF6888002820D0C5
:1010A000002C1FBF606800282088002819D0FFF797
:1010B00011FD20883EF07EF8070010D0228861687C
:1010C00000F0CEFE2088009028783B464A464146F4
:1010D0003EF0F2F800280CBF4FF0FF360026FFF775
:1010E00003FDFFF701FD03B03046BDE8F08303B018
:1010F0004FF0FF30BDE8F083002812BF00294FF009
:10110000FF30704770B516460D460446FFF7E2FC07
:10111000C4E90456FFF7E8FC002070BD00207047CA
:10112000002070470020704710B5044690F830004A
:10113000062884BF4FF0FF3010BD9021034800F017
:10114000B7FF204600F08AF9002010BD5822001099
:1011500008020010A10D020800207047002070470F
:1011600010B5D0F88C1000291CBFD0F890100029C1
:1011700008D0D0F8941000291FBFD0F8980000289C
:10118000002010BD06A14FF0E100FFF745FB4FF036
:10119000FF3010BD10B500F095F8002010BD000024
:1011A0006970616C5F6574685F6869645F696E69C6
:1011B0007428293A206D697373696E6720657468B5
:1011C0002066756E6374696F6E730000A94890F8AD
:1011D0002200012818BF7047002030F02BBF10B547
:1011E00004464FF4E071A44800F062FFA34894F86D
:1011F0002010C180A249626AB2FBF1F2028194F828
:1012000021200270A26AB2FBF1F14170002010BDF2
:101210009848D0F89C00002808BF70470047002974
:101220001CBF0020704730F063BF10B5954A84B0F2
:101230009069D2E90812CDE902128E4A0090907AA4
:101240008DF8000090480190904890F803C0818884
:1012500083784FEA0C6441EA1C214FEA134C44EABC
:10126000034341EA0C0490F801C0007843EA0C23E0
:1012700044EA1C611843CDE90201D2F88C1068469B
:1012800088477E49487104B010BD7A49D1F898105A
:10129000084710B5774CD4F890008047D4F8880000
:1012A000002808BF10BDBDE81040004710B5714CC4
:1012B000D4F88400002818BF8047D4F89400BDE813
:1012C000104000476D4902694A61808A0883002006
:1012D0007047684991F82C10012918BF704738F001
:1012E000E7B8654A0021664BC2F8C011C2F8C411C4
:1012F000C2F8C811C2F8CC11C2F8D011C2F8D4118A
:10130000C2F8D811C2F8DC11C2F8E01142685B499A
:10131000B3FBF2F290F82D00488192B24CF6CD402A
:101320005043800C887000207047062806D2584928
:1013300001EB4011F030C0B2FFF76EBA55A1E020CA
:10134000FFF76ABA10B535F07DFD4A4C94F82C00D1
:10135000012808BF35F088FD94F82F00012808BF48
:1013600035F0AAFD94F82200012818BF10BD002016
:10137000BDE8104030F05EBE10B539F057FF3D4873
:1013800090F82C00012818BF10BDBDE8104039F0BE
:10139000A5BF2DE9F041384D00260446C5F8E461AB
:1013A000C5F8E861C5F8EC61C5F8F061C5F8F4610D
:1013B000C5F8F861C5F8FC61C5F80062C5F80462BB
:1013C000C5F80862C5F80C62C5F81062C5F8146269
:1013D000C5F818624FF4C05105F50870C5F81C62D5
:1013E00000F066FE05F5C057C022C7F82862C7F8AE
:1013F0002C62A169C5F8E411E169C5F8EC1105F5A5
:10140000F271A8230A734B738E734FF0FE0C81F8B0
:101410000FC00A744B748E7481F813C00A714B713B
:10142000184A8E7181F807C0D2E90012C7E9881204
:1014300012480121124AC170218901616168B2FB21
:10144000F1F18181C6810020BDE8F081094991F860
:101450002F10012918BF704738F06AB810B504463C
:101460004821124800F024FE044894F8301001711D
:10147000002010BD802100106024001038030010EF
:1014800040420F0038FE050840FE05084C030010DE
:1014900060FE0508756E6B6E6F776E2073797374DE
:1014A000656D206572726F7200000000903E001042
:1014B000004870470041001070B5A0FB0140B4F136
:1014C000805170F1000024BF002070BD204600F064
:1014D000EDFE05001CBF214600F0C8FD284670BD8A
:1014E00070B516460D46041F002808BF70BD002EBB
:1014F0001CBF05F10800AFF300802B465868002898
:1015000018BFA04238BF0346F8D31968CA18A242D0
:1015100018BF5C6003D122681C4611441960216821
:101520000A19824218BF606004D142686260006894
:1015300008442060002E1CBF05F10800AFF30080B6
:1015400070BD10B5044600F01CFE01682046BDE8E1
:1015500010400122C4E70844401E491E88437047DA
:101560000821001DF7E72DE9F0410F468046041FD2
:1015700000F007FE066807B3B8F1000F384622D026
:10158000FFF7EEFFB84205463CBF0020BDE8F08102
:1015900006F10800AFF300802268AA4238BF314646
:1015A00015D3511B082931D36019002240F8041BC0
:1015B00031462560FFF794FF28E04046FFF7C1FF62
:1015C0000020BDE8F081BDE8F04100F06FBE486842
:1015D000002818BFA04238BF0146F8D31319834230
:1015E0001BD103681A44954217D8531B082B0AD302
:1015F000436862195360236800681844401B1060F8
:1016000025604A6002E022604068486006F10800F8
:10161000AFF30080201DBDE8F0810022314638463E
:1016200000F003FE05000AD041462068021F28464C
:1016300000F09DFC00223146201DFFF751FF06F10E
:101640000800AFF300802846BDE8F08153EA020CA1
:1016500000F069802DE9F04B4FF00006002B1FBF12
:10166000B3FA83F503FA05F424FA05F65E4012BFD7
:101670001643B2FA82F502FA05F4C5F120051EBF41
:1016800022FA05FC44EA0C04203556EA044C4FEAE1
:10169000144418BF641C4FF000084FF0000990423A
:1016A00071EB030C39D3002919BFB1FA81F701FAA4
:1016B00007F6B0FA80F700FA07F6C7F120071EBF59
:1016C00020FA07FC46EA0C062037B6FBF4FCA7EB31
:1016D0000507103F07F01F0BCBF120062CFA06F68A
:1016E0000CFA0BFB44BFB3460026202FA4BF5E4676
:1016F0004FF0000B5BEA060C08BF4FF0010B19EB33
:101700000B0948EB0608ABFB027C06FB02CC0BFB8B
:1017100003CCC01B71EB0C01C1E70B4602464146EE
:101720004846BDE8F08B13B5084318BF4FF0FF30B3
:101730000146AFF30080BDE81C4070470FB41CB5F4
:10174000084B06AA7B4469460090059801F0D9F839
:1017500004460020694601F0E7F820461CBC5DF80D
:1017600014FB0000E11100000FB41CB50C0007AA27
:10177000009007D04142A14202D32044401E01E024
:101780004FF0FF30074B7B4469460190069801F00B
:10179000B8F80021002C01D0009A11701CBC5DF833
:1017A00014FB0000A911000070B5044685690068AB
:1017B000C10601D5302600E02026C00707D070BD45
:1017C000D4E9012130469047206A401C20626D1EFA
:1017D000F6D570BD70B5044685690078C00707D19D
:1017E00070BDD4E9012120209047206A401C20626E
:1017F0006D1EF6D570BD70B50C460546012A05D0A4
:101800002878800600D5EA69002302E0012305E07C
:101810005B1C934202D2E05C0028F9D1A869E6186B
:10182000C01AA861286A184428622846FFF7BCFF3E
:1018300004E0D5E9012114F8010B9047B442F8D334
:101840002846FFF7C7FF70BD2DE9F041064600248A
:1018500010687529314616A510D001F042F900280C
:1018600002DA404213A507E031688A0701D512A5C4
:1018700002E0490704D511A5012401E001F03AF97D
:1018800000210A2206F1240709E0B0FBF2FCB0FBBC
:10189000F2F302FB1C00303078541846491C002833
:1018A000F3D123462A463046BDE8F04100F0BCBDE6
:1018B000000000002D0000002B00000020000000B0
:1018C0002DE9F0418046D21D22F007020025D2E921
:1018D0000002F52915A614D0011E72F1000106DAE6
:1018E0000023D0EB030063EB020211A608E0D8F856
:1018F00000108B0701D50FA602E0490701D50EA6FF
:1019000001251146002408F1240704E000F042FDFF
:1019100030323A55641C50EA0102F7D12B46324668
:1019200021464046BDE8F04100F07EBD00000000C9
:101930002D0000002B00000020000000F0B40D4638
:101940000188090502D5214C7C4402E01F4C7C44EF
:101950000E34002100F1240608E002F00F071209FE
:10196000E75D42EA03721B097754491C52EA0307F8
:10197000F3D102780023120704D5702D06D009B1E7
:10198000022311342246F0BC00F04EBD0123103476
:10199000F8E770B504460D462146106801F0AAF834
:1019A000024629462046BDE870400023C6E7D21D06
:1019B00022F00703D3E90023C0E70368126843F06D
:1019C000200303600823C3610023B7E746EB03004D
:1019D0002DE9F05F894604464FF0000ADFF874B144
:1019E000FB44C0F820A02046E1688847002874D056
:1019F000252806D0D4E901219047206A401C2062A6
:101A0000F1E700265F462046E16888472028054622
:101A100007DB312D05D2781910F8200C08B10643E8
:101A2000F1E7B00701D526F00406C4F81CA0002792
:101A3000C4F818A02A2D09D0284630F05BF838B336
:101A400004EB8708303DC8F8185019E059F8041B1A
:101A5000204604EB87029161E1688847012F054623
:101A600018D1E069002820DA26F020061DE0D8F819
:101A7000180000EB800005EB40003038C8F8180073
:101A80002046E1688847054630F034F80028EED15A
:101A9000012F0AD02E2D08D12046E16888477F1CEF
:101AA0000546022F46F02006C4DBA069002803DAB1
:101AB000404246F00106A061F00701D026F0100672
:101AC0006C2D0BD0682D09D04C2D39D06A2D35D016
:101AD000742D35D07A2D33D016E038E0E1682F46EA
:101AE00020468847B842054609D16C2F26D04FF4CE
:101AF0008060E168064320468847054604E06C2F75
:101B00001AD04FF4807006430DB3A5F14100192897
:101B100002D8203546F400664A462946204626600B
:101B20004E46FEF7E9FB80B101280BD0F61D26F0EA
:101B3000070000F1080956E74020E4E78020D8E7D5
:101B40000020D6E706F104094DE7284652E7206A4F
:101B5000BDE8F09FD6EA03000FB400B58DB010A920
:101B6000099000910B904FF0FF300A9000200C90EC
:101B7000064878440690064878446A4607900F99CC
:101B800009A800F009FF0DB05DF814FB430E00003A
:101B90005B0E00002DE9FF5F1D464FF0FF3B9146B5
:101BA0004FF000085F46D5E90146A96901987F1CFE
:101BB0008847296A824688470028F6D1BAF1FF3F54
:101BC0000CD0002E24F4C06419DD600614D5BAF1DF
:101BD0002B0F09D0BAF12D0F0ED103E0584604B0F7
:101BE000BDE8F09F44F48064A96901987F1C884790
:101BF000761E8246002E02DDBAF1300F03D0B9F115
:101C0000000F26D032E0A969761E01987F1C44F4AB
:101C100000748847002E824605DDBAF1780F06D0A1
:101C2000BAF1580F03D0B9F1000F10D01EE0B9F18E
:101C3000000F02D0B9F1100F18D1A969761E0198D2
:101C40007F1C24F4007488478246102002E008209C
:101C500000E00A20814609E0A96908FB0908761E10
:101C600001987F1C44F4007488478246002E05DDED
:101C70004946504600F07BFE0028EDDAE9690198FC
:101C80008847A00502D46FF00100A8E7E00725D13E
:101C9000600613D5600502D5C8F1000000E040469B
:101CA00029680A1D2A600968220501D5087015E017
:101CB000220701D5088011E008600FE02868011DA7
:101CC00029600068210502D580F8008006E0210720
:101CD00002D5A0F8008001E0C0F8008038467EE719
:101CE0002DE9FF5F4FF0000899461446464691697A
:101CF000D2E901A7DDF838B001988847054659EACE
:101D00000B0005D009E0A1690198761C88470546BB
:101D1000216A284688470028F5D1681C03D05FEA6D
:101D2000CA7005D015E04FF0FF3004B0BDE8F09F59
:101D30002068011D2160D0F800800AE05FEACA70C7
:101D400001D108F8015BA169761C01987F1E8847C4
:101D50000546002F1ADD681C18D0B9F1000F0DD010
:101D6000E81705EBD060421120F01F0059F822104F
:101D70002A1A012090400142E0D107E0BBF1000F98
:101D8000DCD12846216A88470028D7D0E16901982C
:101D90008847BBF1000F07D1002E05DD5FEACA704E
:101DA00002D1002188F80010A068B84203DDBBF121
:101DB000000F03D017B16FF00100B6E73046B4E76B
:101DC0000B460146184600F022BE40EA010310B55A
:101DD0009B070FD1042A0DD310C808C9121F9C42BB
:101DE000F8D020BA19BA884201D9012010BD4FF0AD
:101DF000FF3010BD1AB1D30703D0521C07E00020FA
:101E000010BD10F8013B11F8014B1B1B07D110F856
:101E1000013B11F8014B1B1B01D1921EF1D1184659
:101E200010BD10B5431C02E010F8011B71B1810711
:101E3000FAD14FF0013202C88C1A8C4314EAC21155
:101E4000F9D0C01A0A0603D0C01E10BDC01A10BDBA
:101E50000A0401D0801E10BD0902FCD0401E10BD36
:101E6000032A40F2308010F0030C00F0158011F8C6
:101E7000013BBCF1020F624498BF11F801CB00F89E
:101E8000013B38BF11F8013BA2F1040298BF00F8F2
:101E900001CB38BF00F8013B11F0030300F067806D
:101EA000083AC0F0088051F8043B083A51F804CBD6
:101EB000A0E80810F5E7121D5CBF51F8043B40F89C
:101EC000043BAFF30080D20724BF11F8013B11F8A7
:101ED00001CB48BF11F8012B24BF00F8013B00F8EB
:101EE00001CB48BF00F8012B7047431A28BF9A4224
:101EF0007FF6B6AF10441144032A40F2268010F05A
:101F0000030F1EBF11F8013D521E00F8013D10F0F5
:101F1000030F7FF4F6AF11F0030300F06D80083A71
:101F2000C0F00B8051F8043D083A51F804CD40F858
:101F3000043D40F804CDFFF7F3BF121D5CBF51F81C
:101F4000043D40F8043DAFF30080D20724BF11F8F0
:101F5000013D11F801CD48BF11F8012C24BF00F854
:101F6000013D00F801CD48BF00F8012C704710B5C5
:101F7000203AC0F00B80B1E81850A0E81850B1E842
:101F80001850A0E81850203ABFF4F5AF5FEA027C81
:101F900024BFB1E81850A0E8185044BF18C918C0B1
:101FA000BDE810405FEA827C24BF51F8043B40F852
:101FB000043B08BF7047D20728BF31F8023B48BF37
:101FC00011F8012B28BF20F8023B48BF00F8012B75
:101FD0007047431A28BF9A427FF6C9AF1044114494
:101FE00010F0030F1EBF11F8013D521E00F8013D15
:101FF00010F0030F7FF4F6AF103AC0F00A8010B56E
:1020000031E9185020E91850103ABFF4F9AFBDE893
:102010001040530724BF31E9081020E9081044BFDD
:1020200051F8043D40F8043D12F0030F08BF70471B
:10203000D20728BF31F8023D48BF11F8012C28BF54
:1020400020F8023D48BF00F8012C704702F0FF0362
:1020500043EA032242EA024200F00AB802F0FF0318
:1020600043EA032242EA024200F024B84FF00002A1
:102070000429C0F0128010F0030C00F01B80CCF19A
:10208000040CBCF1020F18BF00F8012BA8BF20F808
:10209000022BA1EB0C0100F00DB85FEAC17C24BF5C
:1020A00000F8012B00F8012B48BF00F8012B704706
:1020B0004FF0000200B5134694469646203922BFE1
:1020C000A0E80C50A0E80C50B1F12001BFF4F7AF2C
:1020D000090728BFA0E80C5048BF0CC05DF804EB0E
:1020E000890028BF40F8042B08BF704748BF20F87C
:1020F000022B11F0804F18BF00F8012B7047000031
:1021000030B44FF0013C50F8042B51F8043BCCFAAA
:1021100052F4D51A20D1FCB950F8042B51F8043BE5
:10212000CCFA52F4D51A17D1B4B950F8042B51F89F
:10213000043BCCFA52F4D51A0ED16CB950F8042BEA
:1021400051F8043BCCFA52F4D51A05D1002CDAD060
:1021500030BC4FF00000704729BAB1FA81F111F09C
:102160001801D1F120008440F2D1CA40CB4012F0D6
:10217000FF0213F0FF0330BCD01A7047704770475E
:10218000704710B5FFF794F9083010BD70477047DD
:102190007047704738B504460A4600206946AFF3D9
:1021A0000080002808BF38BD02460099204600F094
:1021B0006DFC012038BD012001F0C8B8F8B5AFF3BF
:1021C0000080054600200C460C2000BF0646A819DA
:1021D000A0420DD9324669460020AFF300800700C7
:1021E00008BF01F0B3F80098A04218BF0546C41913
:1021F000FFF7C7FF05600746F01D20F007004619EE
:10220000284600F033FCB44208BFF8BDA21B31469B
:102210003868BDE8F84000F039BC0844401E491E4B
:10222000884370470821001DF7E72DE9F041174664
:102230000E460446FFF7F6FFA042054633D9002FAD
:102240001CBF06F10800AFF3008030467468F4B19B
:102250002168A94217D305F1080291423CBF616889
:10226000416007D3626861194A602268521B0A60A4
:1022700041602560002F1CBF06F10800AFF300800D
:10228000201DBDE8F08120466468002CE0D129467D
:102290003046FFF77FFF0028D7D1002F1CBF06F183
:1022A0000800AFF300800020BDE8F08110B50446BF
:1022B000FFF767FF01682046BDE810400122B4E740
:1022C0000844401E491E884370470821001DF7E757
:1022D0002DE9F04791460C468046FFF752FF06680D
:1022E000604234EA000001D1042C02D20520BDE88E
:1022F000F087601E40F007074846FFF7E6FF4845B5
:1023000005469CBF0620BDE8F08706F10800AFF344
:10231000008074683046002C2FD02368211D49426C
:1023200007EA0102934224D9991A8D4221D84AB171
:10233000214614440B689B1A23604B6863600A6053
:1023400041600846226805F108018A4205D36119F7
:10235000521B0A602560416008466168416006F1D1
:102360000800AFF30080241D0020C8F80040BDE83D
:10237000F08720466468002CCFD129463046FFF70D
:1023800009FF0028C5D106F10800AFF30080062040
:10239000BDE8F08730B5B0F10A0271F100034FEAF1
:1023A000900E4EEA817EB0EB0E0061EB91014FEA98
:1023B000101E4EEA017E10EB0E0041EB11114FEAA8
:1023C000102E4EEA016E10EB0E0041EB11214FEA88
:1023D000104E4EEA014E10EB0E0041EB1141401839
:1023E00041F100014FEAD00040EA41704FEAD101CB
:1023F0004FEA810444EA907410EB800544EB010439
:102400006D1944EB0404521BA3414FF0000348BF75
:102410000A3200D530BD401C41F1000130BD0B46F1
:102420000146184601F02EBD2DE9F0470D469946AC
:102430009246044600F124080168880604D5E06944
:1024400021F01001216000E00120A84201DD471BBE
:1024500000E00027A1697A1902EB0900081AA061BF
:102460002078C00602D42046FFF79EF9002608E037
:10247000D4E901211AF806009047206A401C761C16
:1024800020624E45F4DB2078C0060AD52046FFF7CF
:102490008BF906E0D4E9012130209047206A401CE6
:1024A0002062381EA7F10107F4DC07E0D4E901211E
:1024B00018F805009047206A401C2062281EA5F1EC
:1024C0000105F3DC2046FFF785F92078000602D5E8
:1024D0000220BDE8F0870120FBE72DE9FF4F0C4605
:1024E0001E464FF0FF378BB0D2E90001DDF8608067
:1024F0000A908A46C1F30A5505B93D4600210846AF
:102500004FF00000BAF1000F00F4400005DA00EBD4
:1025100080004FF4400101EA50004FEA9059B9F1B0
:10252000010F00DDB9460A9850EA4A000ED044F681
:102530001050A5F2FF3545432F14B8F1000F1ED0FF
:102540007542291E1EDDC9F100021CE0B8F1010F21
:102550004FF0000001D0302103E0F24305E02154A8
:10256000401CB042FBDB30460022002121540B9975
:10257000C1F80880C1E900200FB0BDE8F08FBD1B95
:102580006D1CDEE74A4600DA694206A800F060FDED
:1025900006AB93E8070003AB83E8070050460A99AF
:1025A0002CF0A8FF8DE80700A0F500501F38009020
:1025B0000398002D0ADD42F21F014A460844002319
:1025C00003A9039068462DF011FA09E0A0F5005028
:1025D0004A461F38002303A9039068462DF01BFAD2
:1025E0008DE807000004000C03D04FF0FF304108D5
:1025F00000E01046B8F1000F03D00022009215460B
:102600001EE0751E05D4FFF7C5FE303262556D1E03
:10261000F9D5B3460122084302D000227F1C04E012
:102620002078302801D100227F1E002A099784D00B
:102630001DE0112D07DAFFF7ADFE303262556D1C3B
:1026400050EA0102F5D1084302D00098C8B10EE06B
:102650000021681E05E0235C625C63542254401E26
:10266000491C8142F7DBAB46A81B401E09900020A5
:1026700004F80B000B98099AC0F80880C0E9002BF9
:102680007AE711264FF0000857E72DE9F04F88460A
:102690000446D21D22F0070191B0D1E90001CDE935
:1026A0000A012FF0EBF902460B98C00F01D02D2044
:1026B00007E02068810701D52B2002E0202101EAF4
:1026C000C000032A099001D0072A05DB03464146D2
:1026D000204600F02DFA0BE12078800601D5E06954
:1026E00000E00620B8F1650F814606D0B8F1660F0C
:1026F00018D0B8F1670F70D131E00020B9F1110F97
:10270000009001DB112301E009F101030AAA01A9EC
:102710000CA8FFF7E2FEDDE90C70002609F10105C7
:10272000834647E001204B4600904FF000470AAA3D
:1027300001A90CA8FFF7D1FEDDE90DB00C995D46AB
:10274000002610B909F101000D18B9EB050003D4FA
:10275000C0F1FF3609F10105A5EB09002BE0B9F145
:10276000010F01DA4FF001090020B9F1110F0090BB
:10277000484601DD112300E003460AAA01A90CA87E
:10278000FFF7ABFEDDE90C704D460026834620784E
:1027900000070AD4AB4500DA5D4601A8012D04DD2F
:1027A000411911F8011C302907D04F4502DA17F101
:1027B000040F04DA012082460FE06D1EEEE7002FC1
:1027C00002DCED1B3E4403E0781CA84200DD7D1CCA
:1027D000B81B00F1010A4FF000472078000703D42E
:1027E000AA4501DB4FF0FF3A0021B7F1004F0DF190
:1027F00043088DF8431024D002202B23002F01DA48
:102800007F422D230A21021EA0F1010000DC5FB1EE
:1028100097FBF1FC97FBF1F201FB1C7C17460CF1D6
:10282000300C08F801CDEEE7A8F101000370218813
:10283000090501D5452100E06521A0F1010800F856
:10284000011C09980FA9A1EB0807FF1D00B1012089
:10285000411901EBEA70A1693844081A401EA061D1
:102860002078C00602D42046FEF79EFF099828B1C2
:10287000D4E901219047206A401C20622078C006DC
:1028800022D52046FEF790FF1EE0002E04DBB34564
:1028900002DD01A8805D00E03020D4E901219047ED
:1028A000206A401C2062761CAAF101005FEA000A3F
:1028B0000AD100F0D1F8C0680168405CD4E9012178
:1028C0009047206A401C2062281EA5F10105DCDC2F
:1028D00007E0D4E9012118F8010B9047206A401C59
:1028E0002062381EA7F10107F3DC2046FEF772FFD5
:1028F000032011B041E6000001694A1C026108781A
:10290000704700B58FB0CDE901310021059105492F
:102910007944CDE9031011466846FFF759F80FB026
:1029200000BD0000E5FFFFFF0A6802F8010B0A6026
:102930007047D1E900239A4202D2531C0B601070F9
:10294000704710B5436913B1AFF3008001E0FEF7A3
:1029500052FF012010BD127800F124010A700022FC
:102960004A700122EDE711684FF0FF32E9E73A289B
:1029700000D2303820F02002412A01D3A2F13700E2
:10298000884201D34FF0FF307047000002681144C5
:102990001378016018467047D16005497944516148
:1029A00004497944116200211161114600F096B981
:1029B000EDFFFFFF2B010000426842B1016811F8F2
:1029C000013B23B1521EC0E9001218467047012195
:1029D000C160881E704742685AB1C368016843B934
:1029E00083688B4205D0491E521CC0E900120020AA
:1029F00070474FF0FF30704710B5002000F09FFC8B
:102A0000FDF7F5FBBDE81040012000F017B82DE9F7
:102A1000F041074615460E461020FFF747FC04001C
:102A20000AD06760C4E9026500F01BF80168216004
:102A300004600020BDE8F0810120FBE70149182077
:102A4000ABBEFEE72600020010B500F005F8001D41
:102A500010BD00BF9DC9030010B5FEF729FD203051
:102A600010BD10B5FEF724FD383010BD002140F830
:102A7000041B40F8041B10F08CBA0C207047801A1D
:102A80000844401E491E88431044704770B51446E0
:102A900005468C464368002B18BF634538BF18466F
:102AA000F8D302681044604508D0664660460422A8
:102AB0000821FFF7E4FF811B8446641A2946CCF8FD
:102AC0000040BDE8704000220CF10400FEF708BD94
:102AD00010B50446FFF7B8FF0068005D00F0010084
:102AE00010BD09684A0501D540B27047C905FCD53B
:102AF00000B2704709684A0501D5C0B27047C905E0
:102B0000FCD580B2704711680268006A530501D590
:102B100008700AE0D30501D5088006E0130603D546
:102B2000C217C1E9000200E0086001207047000000
:102B30002DE9F0411F46044603260168072A01F4E7
:102B4000006004DB08B116A505E016A503E008B196
:102B500015A500E015A521F010002060A069C01E99
:102B6000A0610FB1401EA0612046FEF71DFE4FB1CF
:102B7000D4E9012138469047206A401C2062C01CDD
:102B8000206206E0206AFAE7D4E9012115F8010B7A
:102B90009047761EF8D22046FEF71CFEBDE8F08175
:102BA0004E414E006E616E00494E4600696E6600F1
:102BB0002DE9FF5F15468A460446DFF8AC80F844ED
:102BC0000027D8E900103E46CDE9001010E03AF8A1
:102BD00016106A4602A800F07BFE411C07D021783F
:102BE000890603D5E269391891420DD80744761C4D
:102BF0002078800602D5E069B84205DDAE42E6DB0A
:102C00003AF816000028E2D1A069C01BA061204656
:102C1000FEF7CAFDD8E90010CDE90010002017E04A
:102C20003AF818106A4602A800F052FEB0F1FF3FD1
:102C300081460BD000250DF1080B05E0D4E90121F8
:102C40001BF8050090476D1C4D45F7D308F10100B6
:102C5000B0428046E4DB206A384420622046FEF71A
:102C6000B9FDBDE8FF9F00000AD9030030B4002180
:102C700000F1240408E002F00705D208303542EAEA
:102C80004372DB086554491C52EA0305F3D104681A
:102C9000002310A2250708D504F020040C4304D01B
:102CA000C46901230CA2641EC46130BCFFF7BCBB25
:102CB00010B5044621461068FFF71CFF0246204667
:102CC000BDE810400023D1E7D21D22F00701D1E971
:102CD0000023CBE700000000300000002DE9F34F97
:102CE0004FF0000A0C4656468DB001200C9001F1C1
:102CF0000C000B9062690B9801219047051E2DD0A6
:102D0000252D2CD0216A8847C0B162690B9801211A
:102D10009047216A88470028F7D16269411E0B98C5
:102D2000904700E0761CA1690D988847216A884782
:102D30000028F7D1E1690D988847DBE7A1690D9874
:102D40008847A842074601D1761CD3E7E1690D9870
:102D500088477F1C02D1BAF1000F6FD06BE1626926
:102D60000B9800273D46394690472A2804D16269CE
:102D70000B98012190470125DFF8D08262690B98FA
:102D800001219047A0F130010A290AD24745E5DC2C
:102D900007EB870100EB4107303FDFD445F010051A
:102DA000ECE7E90601D46FF000476C280AD04C2804
:102DB00014D0682815D06A280DD074281CD07A2821
:102DC0001AD01DE062690B98012190476C2802D04F
:102DD00045F0040514E045F002050DE045F020053E
:102DE0000AE062690B9801219047682802D045F0FB
:102DF000080505E045F4006562690B9801219047DC
:102E0000C4E9015765283DD019DC58287AD00CDC7C
:102E1000452837D004DC252826D041289ED131E032
:102E200046282FD0472899D12CE05B2877D06128FD
:102E300028D063287CD0642823D15AE0F6E06F289C
:102E400048D008DC66281DD067281BD0692821D00F
:102E50006E2816D127E0702845D0732868D07528D1
:102E600047D078280DD14DE0A1690D9888472528D5
:102E700005463FF469AFE1690D9888476D1C3FF442
:102E80006AAFD8E00D9923466A466FF00100AFF3B0
:102E90000080C5E045F0400023464FF0000260602E
:102EA000A80736D43EE0E8077FF447AF2068011D4D
:102EB00021600068290501D506701BE7290701D5A7
:102EC000068017E7A90703D5F117C0E9006111E7EC
:102ED00006600FE745F0400023464FF008026060AF
:102EE000A80716D41EE040F60E0125EA0100606036
:102EF00016E045F0400023464FF00A026060A80744
:102F000007D40FE045F040006060A80708D52346CD
:102F100010220D996FF00100AFF3008080E007E010
:102F2000102223460D996FF00100FEF733FE77E083
:102F30004FF0000963284F46C8464B46CB4602D0A7
:102F40005B2806D038E0E80601D40120A060012704
:102F500032E06269D4F80CB00B98012190475E28EA
:102F600007D14FF0010949466269D4F80CB00B98BB
:102F70009047216939B900210A4603AB43F8212063
:102F8000491C0829FADBD8B3216949B308F10108C3
:102F900062690B98012190475D28F4D1B9F1000FC7
:102FA00009D0002003A951F82020D24341F8202065
:102FB000401C0828F7DB03AB2069002820794FEA82
:102FC00040701ED05B462246CDF80080CDE90197C7
:102FD0000D9900286FF0010020DAAFF300801FE0A8
:102FE000C11703AA00EBD1614B1121F01F0102EBC5
:102FF0008302411A13680120884003431360C7E726
:1030000019E00D99224600286FF00100009702DABE
:10301000AFF3008004E0FEF763FE01E0AFF3008051
:1030200000280ADA401C06D10C9820B14FF0FF307E
:103030000FB0BDE8F08F5046FAE7E90701D10AF179
:10304000010A064400200C9054E60000CCCCCC0CC5
:103050002DE9F047814616468AB0354878440DC8B8
:103060008DE80D0032487844801C03AC0DC884E81C
:103070000D0041F69B300844372190FBF1F290FBA4
:10308000F1F5A5F1800501FB12041B3C02D5644259
:10309000012000E00020DFF898A080460027FA44D5
:1030A000AAF1BE0A0EE0E0070AD03246684607EBF6
:1030B000470101230AEB81012CF0ADFC8DE80700EC
:1030C00064107F1C002CEED1194F7F44AE3F19E0F5
:1030D000E80715D007EB04100DF1180A90E80E0070
:1030E0008AE80E00C068F04201D198190890324673
:1030F000012306A903A82CF08EFC03AB83E807008C
:103100006D10641C002DE3D14FF001033246694677
:10311000B8F1000F03A802D02CF068FC01E02CF0FD
:103120007AFCC9E90001C9F808200AB0BDE8F087B7
:10313000F0D4030010B565485421FEF7B9FF644888
:103140005421FEF7B5FF63485421FEF7B1FF6248F2
:103150005E49624A624B01605D4810605D4A1A60D8
:10316000431C0B65511C01650120106557484C300C
:103170000FF00FFF56484C300FF00BFF55484C3006
:103180000FF007FF57480FF004FF58484F4A56A169
:10319000784400F051FB20B9544878440A3800F0D4
:1031A000E1FB54484A4A52A1784400F045FB20B95B
:1031B000504878440A3800F0D5FB4F48454A4CA1A6
:1031C000784400F039FB20B94B4878440A3800F0C5
:1031D000C9FB40233D48DC000021224600F09EFA56
:1031E00020B142487844543800F0BCFB38482246AD
:1031F0004023002100F092FA20B13E487844543830
:1032000000F0B0FB334822461023002100F086FA7C
:10321000002806D038487844BDE81040563800F001
:10322000A1BB10BD2B482DE9F041006D2D4E20F0C3
:1032300001043046AFF30080244D4C352846AFF3EF
:103240000080224800F044FA2846AFF30080284668
:10325000AFF300801E4D4C352846AFF300801C486C
:1032600000F036FA2846AFF300802846AFF300801E
:10327000184D4C352846AFF30080164800F028FA68
:103280002846AFF300802846AFF3008014E0206D9D
:1032900020F0010504F14C000746AFF30080204602
:1032A00000F016FA3846AFF300803846AFF30080DE
:1032B0002046FEF746F92C46002CE8D13046AFF305
:1032C00000800848AFF30080BDE8F0816041001045
:1032D000B441001008420010EC040010F00400108B
:1032E000F4040010F804001072000000D4D30300AE
:1032F00077000000C0D30300ACD303002DE9F041F8
:103300000646FFF7AEFB8046454613E016B1E0687F
:10331000B0420ED120682860D4E90101D8F80070CD
:1033200088472046FEF70DF9D8F80000B842EBD1E7
:1033300000E025462C68002CE8D1BDE8F08110B5EE
:1033400000F0F8FABDE8104000F0EFBA10B500F058
:1033500011FBBDE8104000F0E8BA70477546FEF773
:10336000A7F8AE4605006946534620F0070085469B
:1033700018B020B5FDF716F9BDE820404FF0000663
:103380004FF000074FF000084FF0000BAC46ACE8E0
:10339000C009ACE8C009ACE8C009ACE8C00921F03C
:1033A00007018D46704700002DE9F04F04460D4699
:1033B000D21D22F0070089B0D0E90097484639466F
:1033C0002EF05CFB0246F80F01D02D2307E02068A9
:1033D000810701D52B2302E0202101EAC0038DF8EB
:1033E00020300BB1012000E00020032A824601D0EA
:1033F000072A04DB29462046FFF79AFB3FE12078A5
:10340000800601D40D2500E0E569C7F30A560D2DAD
:1034100049DA00214FEA175B08464FF00000002F01
:1034200000F4400007DA00EB80004FF4400100EBAD
:10343000D07001EA60008115012901DD4FF0FF31F4
:1034400000224FEA850CBCF1180F06D31346ACF1ED
:1034500018004FF08052C24003E04FF4801323FA6B
:103460000CF30CF10C0CBCF1200F04D3ACF1200CCC
:1034700009FA0CF001E007FA0CF000294FF00048BF
:1034800001DD18B90FE00ED140450CD319EB02094C
:103490005F4121B9404502D19F4329EA0209BBEBB4
:1034A000175F00D0761C2088000502D57B48784441
:1034B00002E07A487844193808AA302302F80A3022
:1034C000037C0AF10101002E0AF1020A53546A46F4
:1034D00002DC4FF0300101E04FF031014FF0010804
:1034E0008DF8001002D0A6F2FF3603E059EA47013A
:1034F00000D06B4E002D02DC2178090704D54FF077
:1035000002082E218DF80110C44600210BE0C7F3FC
:1035100003433F01C35C491C6D1E02F808300529B6
:1035200008F1010801DA002DF1DC00210CE000EBCC
:103530001973491C1B786D1E082902F808304FEAE0
:10354000091908F1010801DA002DF0DC21688B0669
:1035500002D516E0A8F10108E04505DD02EB0803FD
:1035600013F8013C302BF5D0B8F1000F09DD02EB68
:10357000080313F8013C2E2B03D1090701D4A8F14D
:103580000108002D05DD3E2102F808106D1E08F12E
:103590000108407C002E02F8080008F1010804DA56
:1035A0002D20764202F8080002E02B2002F80800E5
:1035B0000A214FF47A70864208F101080BDB96FB72
:1035C000F0F3303302F8083096FBF0F308F101080D
:1035D00000FB136601E0642E0CDB642096FBF0F325
:1035E000303302F8083096FBF0F308F1010800FBD5
:1035F000136601E00A2E06DB96FBF1F0303002F88C
:10360000080008F1010896FBF1F001FB1060303072
:1036100002F80800A16908F1010808EB050202EBB5
:103620000A00081AA0612078C00602D42046FEF7DE
:10363000BBF8216A08AE01EB0A00206204E0D4E97D
:10364000012116F8010B9047BAF1010AF7D2207850
:10365000C00602D52046FEF7A7F86E4609E016F828
:10366000010B3E280FD0D4E901219047206A401C6D
:103670002062B8F10108F2D22046FEF7ABF809B09B
:103680000320BDE8F08F206A2844206203E0D4E9DB
:103690000121302090476D1EEBD3F8E7D5D0030011
:1036A00002FCFFFF10B5436913B1AFF3008001E0E6
:1036B000FFF77EFA012010BD128800F124018284F8
:1036C0000022C2840122EDE711684FF0FF32E9E7E2
:1036D0002DE9F04704464FF0FF380026C568D4E9CD
:1036E0000497A80718D0204600F04CFB384600F09D
:1036F00073F9002800DA4646280502D54846FDF74A
:1037000020FF4C212046FEF7D3FC206D20F0010065
:1037100020653046BDE8F0874046FBE72DE9F047DD
:1037200004461E4690460D46C7684C308146AFF3AE
:103730000080B80714D0780212D44046B8F5807FD4
:1037400009D0B0F5007F06D0B8F5806F08D101260A
:1037500004F1240506E0701E6FF07F41884201D31A
:10376000012409E02561E6616560E06820F470608D
:1037700040EA0800E06000244846AFF3008020469D
:10378000BDE8F0872DE9F04716468846070010D0BF
:1037900006F14C008146AFF300803046FFF798FFFA
:1037A00018F8010B61280DD0722805D0772841D177
:1037B00005E00020BDE8F0870125002405E0022592
:1037C000042402E0082448F2020518F8010B2B2813
:1037D00006D0622809D018F8010C74280AD00BE032
:1037E00045F0030544F00204EFE745F0040544F01A
:1037F0000104EAE744F010043846214600F0E2F8FC
:10380000411C17D00021316171604FF40071F560E7
:10381000F1617061200704D530460222002100F0DA
:10382000F5F9306D40F0010030654846AFF3008097
:103830003046BFE70026F8E72DE9F04115460E4671
:103840000746214C2046AFF300802A4631463846D1
:10385000FFF798FF05462046AFF300802846BDE8F5
:10386000F0812DE9F0410E468046174D2846AFF312
:103870000080164C206DC10704D0410804D020F010
:103880000104F7E7224612E05420FEF70FFD07007F
:1038900017D0206D47F001010843542120653846B8
:1038A000FEF706FC07F14C000FF073FB3A46314679
:1038B0004046FFF767FF04462846AFF300802046E6
:1038C000CDE70024F8E70000F80400106041001084
:1038D0002DE9F04116460C460546FFF7B5F803689A
:1038E00093F80101012807D0FF2C12D8185D80B190
:1038F00001202C70BDE8F081D3F807013246214643
:1039000003F20713C7182846BC46BDE8F041002360
:1039100060474FF0FF30EDE710B50446AFF300808D
:103920002046BDE81040FCF750BD002801D0FFF74D
:1039300085B8704710B5002102A000F067FA012099
:1039400010BD0000534947414252543A2041626E33
:103950006F726D616C207465726D696E6174696FF0
:103960006E00000010B500F06BFABDE81040FFF7E4
:10397000DCBF000010B5012805D0002103A000F035
:1039800045FA012010BD09A1F8E70000534947524C
:10399000544D454D3A204F7574206F66206865611F
:1039A00070206D656D6F7279000000003A204865E7
:1039B0006170206D656D6F727920636F72727570C2
:1039C000746564000EB5CDE90001FEF72AFA029095
:1039D00069460120ABBE0EBD08B5694600900220C5
:1039E000ABBE08BD1FB58DE8070069460520ABBE1C
:1039F00004B010BD1FB58DE80F0069460620ABBEB0
:103A0000F6E708B5694600900920ABBE08BD1CB5B5
:103A1000CDE9000169460A20ABBE1CBD704708B560
:103A2000694600900C20ABBE08BD2DE9F05F05464D
:103A300017460C46C86820F4201040F48000C86087
:103A4000800602D5084600F0C0F9E06841F2820124
:103A50004FF0FF3A0140022903D0204600F052F90E
:103A6000B9E000F42041B1F5004F0FD1C00306D5F5
:103A70006168E06A884200D80846606006E0206914
:103A8000E06260606069FFF7CAFFA061A068002281
:103A9000EEB200280DDAE1688B050AD4C043A060BD
:103AA00041F490302260E0606068411C6160067003
:103AB000AAE0E0689146226040F40050E06020698E
:103AC00078BB6069FFF79DFF04F124054FF0010802
:103AD000A8B1A08910F4407F08D0E069FEF7E6FBAA
:103AE000206118B1E06840F4006017E0C4F81C8061
:103AF0002561E06820F4407040F480600EE0E069E9
:103B0000FEF7D4FB00282061F0D0E06840F40060AC
:103B100010F4407FE06002D140F48070E0602069E2
:103B20006060E06825696FF0010BC1051ED5616812
:103B3000E06A884200D80846411B04D02246284645
:103B400000F0EAF8E8BB1FB1E562C4E9015959E0A9
:103B5000681CE0626060E069401EA060E06840F4BC
:103B60008030E06030462E70BDE8F09F17B100F461
:103B700080320AE06068411C61600670E0680A2ECD
:103B800040F48030E06006D00022E16A6068814243
:103B900003D90B4602E00122F7E70346B4F80CC054
:103BA0005B1B5FEA4C5C04D4D4F81CC09C4500DD70
:103BB00002B3814200D80146002BA1EB0008E56268
:103BC00000E008E0C4E9015907DD2246194628460D
:103BD00000F0A2F808B15046C6E7B8F1000F09D0CE
:103BE000A169E5626560A1EB0800A061E06840F0B2
:103BF0001000E06047B16168A069E562491B0844B4
:103C00006560A0615846AFE73046ADE72DE9F04169
:103C1000044616460D464769007B80072ED038467D
:103C2000FFF7EFFE50BB3EB3012E02D0022E25D18E
:103C300004E0204600F046F905441DE03846FFF751
:103C4000EEFEE168002841F01001E16005DA20464F
:103C500000F058F80120BDE8F081C9030BD5626877
:103C6000E16A914200D81146A26911442269891A79
:103C7000814200DD08460544002D01DA0220EAE712
:103C8000E16A6068E268814206D29103E06203D58E
:103C900022F4003141F01002A6690027AE4213DC85
:103CA000E16A814201D90B4600E0034603EB060CB2
:103CB0002369ACEB030CAC4506DD814201D98C468F
:103CC00000E084469C4505D1A760276042F02000B3
:103CD000A5620DE0AD1BE669AE1B8142A66000D96E
:103CE0000846C01A281A20605819606022F0200087
:103CF00003490840E060002084F84870ABE700000A
:103D0000BFCFD7FFC16821F4001141F08001C1602D
:103D100000218160016070472DE9F74F15460C4680
:103D20004FF0FF3B3848D768D2F814A0074209D0BB
:103D30005046A969FFF76BFE002819DB3248C043E3
:103D40000740EF604FF000496FF000484C4501D349
:103D5000464600E0264600993B4650463246FFF76D
:103D600041FEA96920F00042B21A1144A96128B1AC
:103D70002846FFF7C7FF5846BDE8FE8FA41BE5D1D4
:103D80000020F9E770B504460569C06A6168884299
:103D900000D80846E16821F42011E160C90312D57A
:103DA000A84208D02246411B2846FFF7B5FF10B1B4
:103DB0004FF0FF3070BD0020E562C4E90150E068BB
:103DC00020F48030E060002070BD10B50446C0686B
:103DD00020F02000E060A16AA06988420DD0204652
:103DE000FFF7D0FFE06820F4405040F01000E060A2
:103DF000A06AA0612069E062606044F24001E0686E
:103E00008843E06010BD00001000020070B5054658
:103E10000C460A2000E06D1C00F02CF835B1287823
:103E20000028F8D102E0641C00F024F814B12078D6
:103E30000028F8D1BDE870400A2000F01BB800004F
:103E400010B5014602A0FFF7E1FF012010BD000000
:103E500053494752545245443A2052656469726549
:103E600063743A2063616E2774206F70656E3A2028
:103E70000000000008B569468DF800000320ABBEC5
:103E800008BD00002DE9F04114460D46074601F13A
:103E90004C063046AFF30080094B7B44224629464E
:103EA0003846FEF72EFD0446287B000601D54FF06C
:103EB000FF343046AFF300802046BDE8F0810000BB
:103EC000EBE2020010B50146C268900703D09006ED
:103ED00007D5886A0AE0FCF791F901210160881E84
:103EE00010BD8B69486818440B69C01A91F84830B6
:103EF0001BB191F84910401A10BD1103FCD50028E0
:103F0000FADD401E10BD04207146084202D0EFF3D6
:103F1000098001E0EFF30880816901F0F8B80A2018
:103F200025F0B9BD04207146084202D0EFF30980A4
:103F300001E0EFF30880816901F0EDB88C4645F2AD
:103F40006051C1F200010B6801461A7C58689B6AF7
:103F50004A439A5C9C2312FB0300624602F01EBA9D
:103F60002DE9F04F9FB0044645F260502178C1F230
:103F70000000D0F800B0481E0E288BF850102DD845
:103F80000C94DFE800F01F2B30082B2B2B2B2B2B56
:103F9000082B2B39120004F10C0011F048FC0E9094
:103FA000A07B00210D9124212FE004F10C0011F0E1
:103FB0003EFC0E9011F03CFC24220B9201220121C8
:103FC0000D9224E004F10C0011F031FC00210E9060
:103FD000A07B0D9124210B91012118E0FF208BF88B
:103FE000500000F008BC201D11F021FC0E90A079BB
:103FF00000210D911C2108E004F11C0011F017FCB8
:104000000E90A07F00210D9134210B9102219BF88D
:1040100050208BF80100FF2A8BF800008BF802007B
:104020008BF8491000F0E783002800F00581002597
:104030004FF0010A4FF4A27700244FF000094FF02F
:10404000000800BF5FFA88F60E98314611F0EDFBCC
:10405000817801F0E001202902D1012106E000BFB2
:10406000017901F0E001202918D10321415C0139D7
:104070000C2913D8DFE801F007121E4C1212552745
:10408000353E077A7100DBF84C104C2308FB031215
:1040900008FB03F301F803A073E000BFDBF84C104A
:1040A0004C2308FB031208FB03F382F83DA001F840
:1040B00003A068E0DBF84C104C2308FB031208FB5C
:1040C00003F303275AE0DBF84C100022214400BF21
:1040D0008B1801F802A04C32E42A83F83D50F7D146
:1040E00051E0DBF84C104C2308FB031208FB03F3F0
:1040F000092743E0DBF84C10002249448B1801F8F3
:1041000002A04C32B2F5987F83F83D50F6D13AE0E8
:10411000DBF84C104C2308FB031208FB03F30427C5
:104120002CE0DBF84C1098224FEA480C08FB0213F5
:1041300008FB02F70CF101024FF04C0C83F83D50E4
:1041400002FB0C1302FB0CF201F807A04FF4A2775C
:1041500001F802A083F83D5015E0DBF84C104C2329
:1041600008FB031208FB03F30D2707E0DBF84C10F4
:104170004C2308FB031208FB03F30C27CF544FF426
:10418000A27782F83D509BF84920DBF82C10931E53
:1041900008FB0711B3FA83F3012A4FEA531318BF40
:1041A0005A00012A4A7013D0022A40F024830A7868
:1041B00002F0F80202320A70DBF82C1008FB07F25A
:1041C0008B5C007803F00F0343EA00101BE000BF94
:1041D0000D9B027823B10A7016E000BF00000000BA
:1041E0000B7802F0010203F0F8031A440A70DBF8BE
:1041F0002C1008FB07F200788B5C00F01E0003F027
:104200000F0343EAC000885411F092FD314611F0CB
:10421000ADFDDBF830104FF41C7208FB021108F101
:104220000108C1F804029BF8010009F5987980455E
:1042300004F1E404FFF406AFDDE90B1000EB010923
:1042400045F26050C1F20000D0F80080002000214B
:1042500019F80020CBB29A4288BF1346FF2A00F11A
:10426000010018BF19460428F2D1D8F84440481C70
:1042700009F1C405002688F8020000BF002700BF2E
:10428000E85911F04DF954F8260038440437182F36
:1042900080ED000AF4D10136042E05F11805EDD1A8
:1042A000D8F8380009F1440107F0FAFFD8F83400D3
:1042B00009F18405294607F0F3FFD8F83C002946A8
:1042C00007F0EEFFCDF83480D8E90F180DF13C0A65
:1042D00000225346002700BF51F8270058F82760F6
:1042E000002500BF445972515C510435102DF9D19D
:1042F0000137042F03F11003EED100204FF07E515F
:1043000058F80020115004301028F9D11FED4D1A33
:104310000AF1100C0026BFEE000A5146D64600BF37
:104320004FF0FF327346B0EE412A374693ED003A24
:10433000103323EE033AB4EE423AF1EE10FAC4BF62
:10434000B0EE432A3A460137042FEFD1501C00F05B
:10435000B68058F82640B2420FD058F822000AEB37
:1043600002120023D558CF58CD50D750C558E75822
:10437000E550C7500433102BF4D10AEB061000EBC4
:10438000860090ED002A624680EE022A334600BF86
:1043900001330AEB031000EB860090ED003A58F869
:1043A000237022EE033A0025481990ED004A501977
:1043B00090ED005A23EE044A34EE054A80ED004A9F
:1043C000601990ED004A781990ED005A23EE044AE6
:1043D000043534EE054A102D80ED004AE4D1032B5C
:1043E00002F11002D4D101360EF1140E1031032E59
:1043F0000CF1100C94D10AF1200C0AF130024FF0AC
:10440000030E00BF0AEB0E1000EB8E0090ED001AB9
:1044100058F82E6080EE011A614673461F46013B34
:104420000AEB031000EB8E0090ED002A58F82350A1
:1044300021EE022A002000BF141894ED003A0C1857
:1044400094ED004A22EE033A33EE043A84ED003A4A
:10445000341894ED003A2C1894ED004A22EE033AF9
:10446000043033EE043A102884ED003AE4D1012FF1
:10447000A1F11001D2DCBEF1010EACF1100CA2F1E1
:104480001002BFD80021B7EE000A00BF0AEB0110EE
:1044900000EB810090ED001A58F8210080EE011A1F
:1044A000002200BF831893ED002A043221EE022A75
:1044B000102A83ED002AF5D101310429E6D145F215
:1044C0006058C1F20008D8F80050DDE90DA70020BF
:1044D00019F80010FF2903D06A6A11542A6A11548E
:1044E00001300428F4D16878E8B10024002600BF28
:1044F000E1B2384611F099F9407821F0B3FF012874
:1045000098BF012019F80420F1B250FA86F000BFDC
:10451000AB6A01365A54F1B28842F9D8697801344D
:104520008C420646E4D338460021002411F07DF980
:10453000407821F097FF012898BF01206978AA7878
:104540002874484328704AB1002000BFE9680C5421
:10455000A97801308842F9D328780C46000610D09B
:10456000002000BFA96AEA68095CEB69575C53F850
:1045700021307E1C5654D855297801308842F1D319
:10458000AC784FF0000044B1002100BFAA6850543D
:10459000AA7801319142F9D31046697881B100209F
:1045A000696AAA68095CAB69575C53F821307E1CC4
:1045B0005654D855697801308842F1D3A87800E084
:1045C000002140B100200021AA685054AA7801318E
:1045D0009142F9D3697879B1002000BF296AAA68AD
:1045E000095C6B69575C53F821307E1C5654D855D2
:1045F000697801308842F1D39AF80200A8B309F132
:1046000004040025002600BFA078DAF80410C0F3E7
:10461000011248198263A1788909C163617801F0A8
:10462000030141636178C1F3810101646178C1F3E1
:1046300001114164617889098164A17801F0030165
:10464000C164A178C1F3810101652178C1F3400102
:1046500080F86210211D04F02FFC9AF80200013648
:104660009C35864204F11004CED3D8F8009099F816
:104670000280B8F1000F56D0D9F804E000234FF0C3
:104680009C0C4FF41C75012403FB0CE191F86510A0
:1046900001292FD0032917D0022941D1D9F8087058
:1046A000F95C00293CD0D9F81400D9F8306050F8F2
:1046B00023200021505C013110FB056080F8E141AE
:1046C000F85C8142F6D32BE0D9F80870F85C38B377
:1046D000D9F81400D9F8306050F82320002100BF29
:1046E000505C013110FB056080F8E141F85C8142CB
:1046F000F6D315E0D9F80870F95C89B1D9F814102F
:10470000D9F8306051F82320002100BF505C0131FE
:1047100010FB056080F8E141F85C8142F6D300BFF0
:1047200001334345B0D1DBF8448001200021B7EECE
:10473000000A00BF58F82120002602EB810300BFC9
:10474000B14205D193ED001AB4EE401A04E000BF67
:1047500092ED001AB5EE401AF1EE10FA06F10106DC
:1047600018BF0020082E02F10402E9D1013104290A
:10477000E0D1002818BF4FF000089BF80200D0B32A
:10478000DBF8040000250026DBE9021A2844DBE9F7
:1047900005370E9088190D9053F82600DBF81C4061
:1047A0000C90DBE90D9057F8267054F826E00B903A
:1047B000DBE90F20DBF84C100AEB0603DBE90BC446
:1047C000CDE90808CDE9007ECDE904190692DDE9BE
:1047D0000D101A46DDE90B73CDE9024C079701F085
:1047E00040FADBF804009BF80210013646558E4271
:1047F00005F19C05C8D31FB0BDE8F08F2DE9F04F3F
:1048000083B045F26056C1F2000637680446386B43
:104810004FF41C7804FB08000D46043000F024FD22
:1048200030682946006B04FB0800643000F01CFD72
:1048300030682946006B04FB0800643000F014FD6A
:1048400030684FF4A276C06A05F1500104FB0600FF
:10485000943000F009FDF86A95F8BE1004FB0600DC
:1048600003F01EF9F86A05F1A40C04FB060095EDAF
:10487000270AD5ED280A9CE80E10D5F8B460CDE9DA
:1048800000C603F06DFD386B5FFA84F904FB080085
:1048900049462A4600F034FF387C90B34FF04C0A6A
:1048A000002604FB0AFB4FF0000800BF97F85010E9
:1048B000042908D1F96C604300FB0A10304405F06C
:1048C00032FAB8B9387CF96CD5F898200BFB001097
:1048D00095ED300A3044494601F0BCFA45F260508B
:1048E000C1F20000006895ED310AC06C04FB0A00BB
:1048F00005F010FA387C08F10108804506F14C06F5
:10490000D4D303B0BDE8F08F45F26052C1F200028B
:1049100012684FF41C73126B00FB032003F0A4B861
:1049200045F26053C1F200031B6800EE101AD3F881
:1049300030C04FF41C7300FB03C001EE102AB8EE28
:10494000C00AF8EEC10A01F02FBAF0B581B045F205
:104950006056C1F2000632680446106B4FF41C77B3
:1049600004FB07000D46043000F07EFC3068294649
:10497000006B04FB0700643001B0BDE8F04000F0BC
:1049800073BC0A4645F26051C1F2000109684FF458
:10499000A273C96A00FB0313C1B2184600F04CBFF2
:1049A00045F26052C1F2000212684FF4A273D26A5B
:1049B00000FB032003F0D4BB10B582B045F2605277
:1049C000C1F2000212684FF4A273D26A91EC020A9B
:1049D00000FB0320D1E902C2D1E9043E8C696146A3
:1049E000CDE900E403F0BCFC02B010BD45F260511B
:1049F000C1F2000109684FF4A272C96A00FB0210FB
:104A000004F090BA45F26052C1F2000212684FF40D
:104A1000A273D26A00FB032003F0A2BD00F092B89B
:104A200070B545F26054C1F200042268907858B124
:104A3000002500265068284400F030FD2268013629
:104A400090789C358642F5D3D06A517892F8492007
:104A5000BDE8704000F0DCBFF0B581B045F26056B3
:104A6000C1F2000632680446106B4FF41C7204FB5E
:104A700002000D4621462A4601F00CF93068017CFF
:104A8000A1B1C06C61434C2201FB020005F144045A
:104A9000002500BF00F14C0702F043FD316844F8E7
:104AA0002500087C013585423846F3D301B0F0BDBE
:104AB00045F26052C1F2000212684FF4A273D26A4A
:104AC00000FB032001F008B9F0B581B045F2605752
:104AD000C1F2000716463A680446106B4FF41C7288
:104AE00004FB02000D4602F081FF40B138684FF42C
:104AF000A271C06A04FB0100294602F0D4FF46B14E
:104B000038684FF4A271C06A04FB0100D0F890002D
:104B1000286101B0F0BD000070B545F26054C1F2EB
:104B200000042068817861B10025002640680D21CD
:104B3000284405F0FFF82068013681789C358E42C4
:104B4000F4D370BDF0B581B02DED048B45F260500B
:104B5000C1F200000468002C00F07F8060789FEDB7
:104B6000419A01250026B7EE008A4FF41C77A07009
:104B7000257400BFA06800228555206A8655A06A6A
:104B80008655606950F826000670E06B616B50F83E
:104B9000260051F8261000BF9642B0EE490A02F1F5
:104BA000010208BFB0EE480AA0EC010AA1EC010A1C
:104BB000042AF1D1606C002150F826008E42B0EE3C
:104BC000490A01F1010108BFB0EE480AA0EC010A50
:104BD0000829F3D1206B06FB070000F0C6FAE06855
:104BE0008555E06950F8260006700136042EC1D1C3
:104BF00000254FF4A27600BF606A00224555A069E7
:104C000050F825000570206CA16B50F8250051F874
:104C1000251000BF9542B0EE490A02F1010208BF1B
:104C2000B0EE480AA0EC010AA1EC010A042AF1D175
:104C3000E06A05FB060000F0F1FA0135042DDBD136
:104C4000002500BFE06C284400F0E9FF4C35B5F5C5
:104C5000187FF7D1FF2084F85000BDEC048B01B021
:104C6000F0BD00BF00000000F0B581B045F2605516
:104C7000C1F200052A68137C8BB10C46D16C5843F5
:104C80004C2200FB02100026214600F14C0701F0E7
:104C900041FB28680136007C86423846F4D301B0D7
:104CA000F0BD45F26052C1F2000212684FF4A273E7
:104CB000D26A00FB032004F02FB945F26052C1F222
:104CC000000212684FF4A273D26A00FB032005F0C1
:104CD0007DB945F26052C1F2000212684FF4A2732E
:104CE000D26A00FB032005F080BB45F26052C1F29E
:104CF000000212684FF4A273D26A00FB032003F093
:104D000043BC45F26052C1F2000212684FF4A27334
:104D1000D26A00FB0320943000F0A6BA45F260513D
:104D2000C1F2000109684FF4A272C96A00FB0210C7
:104D300003F021BBF0B581B045F26057C1F2000726
:104D40003C680E4605465CB914F098FE04215422D6
:104D5000012314F09DFE04460028386000F0DC803A
:104D6000042026706570A57000F092FC606014F05D
:104D700085FE04210122042314F08AFEA06014F0B1
:104D80007DFE04210122042314F082FEE06014F071
:104D900075FE04210422042314F07AFE606114F0ED
:104DA0006DFE04210422042314F072FEA06114F0AD
:104DB00065FE04210422042314F06AFEE06114F06D
:104DC0005DFE04210122042314F062FE206214F02F
:104DD00055FE04210122042314F05AFE606214F0EF
:104DE0004DFE04210122082314F052FEA06204208B
:104DF00007F020FA2063042007F034FAE06208206C
:104E000000F090FEE06414F039FE04210422042333
:104E100014F03EFE606314F031FE042104220423EA
:104E200014F036FEE06314F029FE0421042204236A
:104E300014F02EFEA06314F021FE042104220423AA
:104E400014F026FE206414F019FE04210422042329
:104E500014F01EFE0025606414F010FE04210122EF
:104E6000042314F015FE616941F8250014F006FED4
:104E700004210422042314F00BFE616B41F8250089
:104E800014F0FCFD04210422042314F001FEE16B64
:104E900041F8250014F0F2FD04210422082314F047
:104EA000F7FD616C41F825000135042DD4D10025B2
:104EB00014F0E4FD04210122042314F0E9FDA169AA
:104EC00041F8250014F0DAFD04210422042314F033
:104ED000DFFDA16B41F8250014F0D0FD0421042270
:104EE000042314F0D5FD216C41F825000135042D73
:104EF000DED1002514F0C2FD04210122082314F0A4
:104F0000C7FDE16941F825000135042DF2D1FFF715
:104F100019FE204601B0F0BD0024FAE745F26052C8
:104F2000C1F200021268136A5268185C9C2310FBDD
:104F3000032004F0FFBE45F26052C1F20002126885
:104F4000136A5268185C9C2310FB032005F078BAA2
:104F500045F26051C1F2000109684FF41C72096BFF
:104F600000FB021001F069B845F26051C1F2000186
:104F700009684FF41C72096B00FB021001F066B85F
:104F800045F26051C1F2000109684FF41C72096BCF
:104F900000FB021001F088B845F26051C1F2000137
:104FA00009684FF41C72096B00FB021001F0ABB8EA
:104FB00045F26051C1F2000109684FF41C72096B9F
:104FC00000FB021001F0A8B845F26051C1F20001E7
:104FD00009684FF41C72096B00FB021001F0A5B8C0
:104FE00045F26051C1F2000109684FF41C72096B6F
:104FF00000FB021000F008B970B545F26054C1F230
:10500000000421680A7C7AB1C96C50434C2200FB31
:105010000210002500F14C0601F0A5F920680135C9
:10502000007C85423046F5D370BD0000F0B581B0FC
:1050300045F26056C1F200063268137C8BB10C4613
:10504000D16C58434C2200FB0215002734F827107E
:10505000284600F023FF30680137007C4C3587423A
:10506000F4D301B0F0BD45F26051C1F2000109680E
:105070004FF41C72096B00FB021005F085BA45F273
:105080006051C1F2000109684FF41C72096B10FBFA
:10509000021003F0CDBD45F26052C1F20002126869
:1050A0004FF4A273D26A00FB032003F03EBF45F227
:1050B0006052C1F2000212684FF4A273D26A00FB80
:1050C000032005F0BBBA45F26052C1F2000212683B
:1050D0004FF4A273D26A00FB032003F088B845F2B4
:1050E0006052C1F2000212684FF4A273D26A10FB40
:1050F000032003F04FBA45F26052C1F20002126879
:105100004FF4A273D26A00FB032005F089B901466F
:10511000082024F0D8BC0146062024F0D4BC014667
:10512000072024F0D0BC0146092024F0CCBC042088
:105130007146084202D0EFF3098001E0EFF30880E6
:105140008169FFF7ECBF052024F0A5BC0B2024F0FB
:10515000A2BC04207146084202D0EFF3098001E0AE
:10516000EFF308808169FFF7DEBFF0B581B000275B
:105170000446C0F8C470EC30122104F5807604F5C2
:10518000B275FCF795FF30466021FCF791FF284689
:1051900000F0C2FC04F5B676304600F0BDFC2846AF
:1051A000642105F091F83046322105F08DF828464B
:1051B00000F032FD304600F02FFD04F5BA700021FA
:1051C0000022002300F0A0FD201D07F02DF804F1BF
:1051D000640007F029F80B2084F8DC0104F1CC000E
:1051E000202104F5007584F8C870FCF761FF28469B
:1051F000282184F8E171C4F8DD71FCF759FFFF2024
:1052000084F8240201B0F0BD90ED4A0A00F5BA70AE
:10521000BDEEC00A10EE101A00F095BD10B54FF4A7
:10522000A2710446FCF744FF4FF07E50606040F2EC
:105230000110A4F8F4004BF2B000A4F81001002112
:1052400004F58A7084F8F810C4E93F11C4E94111EB
:1052500000F062FC04F59A7000F05EFC04F58E70BC
:105260001421FCF725FF10BDB0B52DED0A8B0D46BE
:1052700091F82410012202FA01F100EE101AB8EEA2
:10528000C00AB7EE008A88EE009AA9690446016058
:1052900095ED000A95ED033A95ED011A95ED022A78
:1052A000142120EE09AA29EE030A80ED01AA80ED5F
:1052B000040A143029EE02BA29EE01CAFCF7F8FEFE
:1052C00028699FED252AA06295ED070A95ED081A39
:1052D00029EE000A84ED0D0A29EE010A84ED0E0A7A
:1052E0009FED1E0AB2EE041A2BEE000A2AEE011AF6
:1052F00031EE001A80EE011A696900202CEE022AB4
:10530000B5EE400A9FED163AC4E9141084ED032A65
:10531000F1EE10FA4FF00001B5EE40AAA06584F856
:105320005C0084ED020A38EE412A18BF0121F1EE3B
:1053300010FA18BF012020EE020AB0EE432A0840FE
:105340001CBFB0EE412AB0EE403A84ED0B2A84ED4A
:105350000C3ABDEC0A8BB0BD6F12033A00007A44E0
:105360000000000090ED081A90ED033A90ED094A14
:1053700031EE005A23EE055A90ED0A3A90ED012ADB
:1053800035EE044AB4EE434A22EE002AF1EE10FA5A
:1053900080ED094A06DCB1EE433AB4EE434AF1EE41
:1053A00010FA03DAB0EE434A80ED093A32EE042AED
:1053B00090ED074A90ED0B5A90ED0C6A30EE411AD1
:1053C00025EE044A26EE011A90ED003A31EE041A59
:1053D00032EE014A90ED142A80ED071A34EE031ADA
:1053E000B4EE421AF1EE10FA80ED080A02DDB0EEDA
:1053F000421A08E0B1EE420AB4EE401AF1EE10FA99
:10540000B8BFB0EE401A90F85C10B0EE410A013916
:1054100003292ED8DFE801F0021D0B1490ED160AC7
:1054200090ED152A9FED193A9FED194A19E090ED7C
:10543000160A90ED152A9FED113A9FED114A10E0E2
:1054400090ED160A90ED152A9FED123A9FED124A43
:1054500007E090ED160A90ED152A9FED0A3A9FEDB0
:105460000A4A31EE000A20EE030A22EE042A32EE46
:10547000000A80ED150A80ED161A70471F4C243B78
:1054800068B77E3F75B2613B9B3C7E3F72FA183C29
:105490002C387B3F8F90CD3A6F327F3F2DE9F0471C
:1054A000044602F025FB204603F040FC94F863001C
:1054B00020B12046BDE8F04702F05AB894F86C10CD
:1054C000FF2904D1002084F86300BDE8F087D4F8F8
:1054D0000480226F98F800A047F230539A4218DAFD
:1054E000A06890F80080501C2067C81E01220B287D
:1054F00084F8632000F26D80DFE800F0070686067E
:10550000067E82768A7A8E72DCE7204605F03CF9C8
:1055100085E0FE2921D1BAF1000F53D0E168A269DC
:1055200000234FF41C7E4FF4A27C5546CE5C16FB44
:105530000E2696F82472062F0CD106F50275266900
:10554000E769F65C686916FB0C76F063A86930645D
:1055500098F800500133AB42E8D3FF2084F86C0088
:105560004FF00B080020BAF1000F84F85E8084F839
:10557000630025D000274FF41C794FF4A27600BFBA
:10558000D4E90301D4E90623C05D10FB092080F8AB
:10559000DC81C85D002110FB063000F053FE20695D
:1055A000E169C05D10FB061000F015FB2069E169A0
:1055B000C05D10FB061000F08BFE0137BA45DFD14D
:1055C000BDE8F087FF2084F86C000B2084F85E00B3
:1055D00078E7FE297FF476AF204606F0C3FA1EE096
:1055E000204605F013FE1AE0204605F079FC16E08F
:1055F000204605F0D3FD12E0204605F003F90EE049
:10560000204605F033FA0AE0204605F0D9F806E016
:10561000204605F003FD02E0204605F0DBFD0028F2
:1056200084F8630008BFBDE8F087B8F1000F0ED022
:1056300000274C266069A16DC05D10FB061003F0C9
:105640006EFB00283FF43EAF0137B845F2D1FF2092
:1056500084F86C00204602F04BFA0020BAF1000FEB
:1056600084F85E000DD0E168A2694FF41C7300BF9E
:1056700011F8017BBAF1010A17FB032787F8DC0157
:10568000F6D120460121BDE8F04704F053BB0000ED
:105690002DE9F04F81B0054614F0F0F904219C2269
:1056A0002B469C2614F0F4F983462DB3754300264F
:1056B0004FF00B084FF001094FF0FF0A002700BF21
:1056C0000BEB070404F118001C21A665C4E9016670
:1056D000C4E90366FCF7ECFC04F134002021C4F8B3
:1056E0005E80FCF7E5FC9C37BD42A4F8629084F82C
:1056F000656084F86CA0E3D1584601B0BDE8F08F36
:1057000070B5044690F8FD001546217050B19FED2C
:10571000431A9FED433A9FED432ADFED430A9FED85
:10572000430A13E095ED1F1A95ED1E0A95ED202A08
:1057300095ED213AF8EEC10A95ED251AB8EEC00AAA
:10574000B8EEC22AB8EEC33AB8EEC11A04F1EC00C2
:1057500084ED400AC4ED410A84ED422A84ED433AC7
:1057600080EC030A95ED222A49F28060C4F61830D5
:10577000C4F8F80084ED562AD5F88C00B7EE003A4C
:10578000C4F85C01D5F89000DFED2A1A83EE023AE6
:10579000C4F85401B5EE402A04F5BA709FED244ACE
:1057A000F1EE10FA08BFB0EE443A84ED583A03F037
:1057B000D6FBB5F8BC1004F5B676304604F084FD8F
:1057C000304600F029FA0020C4F86001D5F8C8007E
:1057D000C4F8C40095F8CC0084F8C800E8B1D5F846
:1057E000D810D5E93402C4F8D410C4E93302D5F88E
:1057F000E410D5E93702C4F8E010C4E93602D5F860
:10580000E800C4F8E400D5F8EC1004F50A70C4F818
:10581000E810BDE8704009F07CB870BD000080461B
:105820005575D8465575D8C65555D5465555D5C61E
:10583000000000008096184BB0B588B08170044617
:10584000106D4FF0FF31606092F865001546C0F3AF
:1058500040002074506DB0F1FF3FC8BF0121616569
:10586000B2F86E00116F6082E163506F916D92ED3E
:105870001A0A92ED051A2064E165B2F960006278B7
:10588000B5F96C10BDEEC11AA067022A88B284ED8A
:10589000160A84ED1B1A00F0A380012A40F0B380A1
:1058A00000B2B0F5FA4FA8BF4FF4FA40A061A5F8D6
:1058B0006C00002084F83C0195F86500C0F380007E
:1058C00084F83C0195F86510CA0704D0023084F8CA
:1058D0003C0195F865100A0704D5083084F83C01AE
:1058E00095F865108A0705D540F0040084F83C015E
:1058F00095F86510CA0604D5103084F83C0195F877
:105900006510490644BF203084F83C01686DB2EE52
:10591000041AA4F83D01B5F8620020EE010A95F8DA
:105920006410BDEEC00AA4F83F0110EE100A84F81E
:10593000411184F842012046294607F0C9F905F1D2
:105940002801204607F054FA2078B5F86E200303AA
:1059500000F007013FFA83F343EA0121084406906F
:1059600006A8ADF81C200BF0B4FE2078EA6DB5F85F
:105970006030050300F007013FFA85F545EA012193
:105980000844CDE9030203A8ADF814300BF08DFEF6
:105990002078D4F83C21050300F007013FFA85F593
:1059A00045EA01210844D4F840318DE80D006846ED
:1059B0000BF03FFE04F59A752846322104F084FC72
:1059C000284600F029F904F58A752846322104F0AA
:1059D0007BFC002084F81101284600F01DF915E039
:1059E00000B2B0F5526FA8BF4FF45260A5F86C003A
:1059F000A06120780021000984F8101108B0BDE8EA
:105A0000B0402DF077BDA161A5F86C0008B0B0BD25
:105A1000B0B58AB00C46012A14D0022A4AD1002C13
:105A200048D000F1900500BF296815F8900C45F8A2
:105A3000741C000909B22EF08DF8013C05F5A27521
:105A4000F2D137E0002140F20772089101910092F3
:105A5000CDE90221CDE90421CDE906218DF82110FF
:105A60002CB300F19001EC46042C28BF042400BFA5
:105A7000002814BF11F8903C07239DF82050032DF7
:105A800011D81A033FFA82FE03F007024EEA0222FF
:105A900002EB030E6B1C0A688DF820300CEBC5037B
:105AA0004CF835E05A60013C01F5A271E0D168463E
:105AB0000BF03CFD0AB0B0BDB0B5044640780128FB
:105AC00003D194F80821D2071AD101398AB2022AE7
:105AD00016D8C90040F6502289B2C0F20602022848
