:020000040802F0
:100000008885001089050208756002083D3F0208D6
:100010005D600208F93E0208CD60020800000000A1
:100020000000000000000000000000004104020881
:10003000113F020800000000F90402085D050208F3
:10004000A3050208A3050208A3050208A3050208E8
:10005000A3050208A3050208A3050208A3050208D8
:10006000A3050208A3050208A3050208A3050208C8
:10007000A3050208A3050208A3050208A3050208B8
:10008000A3050208A305020851A30508E5A5050874
:10009000D9A50508A3050208DFA50508A3050208E0
:1000A00051B90508A30502089DB90508A305020872
:1000B000A3050208A3050208A3050208A305020878
:1000C000A3050208A3050208A3050208E1B4050878
:1000D000E7B40508A3050208A3050208A305020862
:1000E00029AF0508A1600208A3050208A3050208BC
:1000F000A305020815BA0508A3050208A30502080E
:10010000A3050208A3050208A3050208EDB405082B
:10011000A3050208A3050208C5B90508EDB905083D
:10012000A3050208A3050208A3050208A305020807
:10013000A3050208C1AD0508A3050208F7A5050837
:10014000EBA50508A3050208F1A50508A30502080B
:10015000A3050208A3050208A3050208A3050208D7
:10016000A3050208A3050208A3050208A3050208C7
:10017000A3050208A3050208A3050208A3050208B7
:10018000A3050208A305020800F002F800F014F924
:1001900014A696E8000CB244B344DA4501D100F04D
:1001A0000BF9BAE80F000FA696E83000A5EB04059E
:1001B00004EB0607AAEB0704A7F101074FEA1515A0
:1001C0004FEA3414A4F10104AC4201D300F0F4F876
:1001D00013F0010F18BFFB1A43F0010300F001F800
:1001E000DBE71847C03F0500F03F0500704710B53A
:1001F000002003F07BF803F00DF810BD17F020BECF
:100200000202035FE877D401000002080000060044
:1002100000000020C0FF01000000000000000000FE
:1002200007614D4334303076330000000000000099
:1002300001000100010000004558540000000000CA
:100240004A616E20313620323032352031373A3132
:10025000363A3436000000000000000000000000C4
:10026000000000000000000000000000000000008E
:10027000000000000000000000000000000000007E
:100280000A444FF0000C10F8013B13F0070408BFBC
:1002900010F8014B1D1108BF10F8015B641E05D05A
:1002A00010F8016B641E01F8016BF9D113F0080F0F
:1002B0001EBF10F8014BAD1C0C1B09D16D1E58BFA1
:1002C00001F801CBFAD505E014F8016B01F8016BD8
:1002D0006D1EF9D59142D6D370470000002300244B
:1002E00000250026103A28BF78C1FBD8520728BF46
:1002F00030C148BF0B6070476E2902F0FC83702943
:1003000001F05B83662909F058A7652909F055A714
:10031000672909F052A7612909F051A703681B0A50
:1003200028BF41F08001692901F08E82642901F023
:100330008B82752901F088826F2902F0B1847829B7
:1003400001F02783E92901F0BB82E42901F0B8829A
:10035000F52901F0B582EF2902F0AE84F82901F009
:1003600026830368DB0928BF41F08001632902F07E
:10037000EA82732902F0EF82E32903F09581F329E1
:1003800003F09A81002070471FB549F0C0FE9DE838
:10039000030001F00BFF02F057FB040000200021D6
:1003A00049F01AFB401C60600020002149F0FEFA71
:1003B000E06002F0B7FE1FBD02F0C8FF1146FFF774
:1003C000E3FF33F0DDFC03F09FFA03B4FFF70FFF08
:1003D00003BC02F02BFB000080F309887047EFF3A9
:1003E00009807047684680F3098804480078C00790
:1003F00014BF0220032080F314887047F803001014
:10040000DFF818C0EFF305831B0618BF6047EFF352
:100410001483DB0708BF604700DF70477D3C060898
:10042000DFF818C0EFF305831B0618BF6047EFF332
:100430001483DB0708BF604700DF7047F53C060800
:10044000EFF30980816911F8021CE1BB90E80F10FD
:1004500010B5E047BDE81040EFF3098C8CE80700C9
:10046000214B93E80600914208BF704741B91EF046
:10047000100F16D11D49086820F00100086010E037
:100480001EF0100F06BF2CED108A0120002081F80D
:1004900038002CE9F00FC1F83CC00CB445F012F95B
:1004A0000CBC1A60D2F83CC0BCE8F00F92F83800DF
:1004B00000280EBF6FF0020E6FF0120EBCEC108A17
:1004C0008CF30988704710B5094A1268914209D81F
:1004D000084C54F8214090E80F10A047EFF3098C26
:1004E0008CE80F0010BD00006C03001034EF00E03A
:1004F00070A2050870A2050810B544F0DDFFBDE844
:100500001040154B93E80600914208BF7047EFF387
:10051000098C1EF0100F06BF2CED108A0120002060
:1005200081F838002CE9F00FC1F83CC00CB445F05C
:10053000C9F80CBC1A60D2F83CC0BCE8F00F92F8C5
:10054000380000280EBF6FF0020E6FF0120EBCECE8
:10055000108A8CF3098870476C03001010B545F0C1
:10056000D5F8CCE710B542F045F945F0CFF8C6E72D
:1005700000487047003000000048704700FC010050
:10058000401EFDD1704700000948804709480047D8
:10059000FEE7FEE7FEE7FEE7FEE7FEE7FEE7FEE733
:1005A000FEE7FEE704480549054A064B7047000090
:1005B000FDB70508890102080000002088850010A9
:1005C00000FC012088550010F7B514466E4600293E
:1005D00014BF0125002588480078E8B100F07AFAB8
:1005E000294630463BF0FAFEC5B2012C0DD18348B6
:1005F0000099834CC0F82610014620684022001D57
:1006000001F02EFC206800F040FE00F06DFA012D94
:1006100002BF002003B0F0BD4FF0FF3003B0F0BDCB
:1006200038B56C460090002914BF0125002572489A
:10063000007860B100F04EFA294620463BF0CEFE2D
:10064000C4B200F051FA012C04BF002038BD4FF0B5
:10065000FF3038BD2DE9F34767480D46E94600787D
:100660004FF0FF37F0B1674E3088D8B100F032FA62
:1006700030880024002888BFDFF88C810FD900BFA4
:10068000C4EBC40008EB4000042249460A3001F0E4
:100690009CFB60B1601CC4B230888442F0D300F08F
:1006A00023FA11E002B04FF0FF30BDE8F087C4EB51
:1006B000C40008EB4000041D00F016FA00271DB12D
:1006C00020682860A088A88002B03846BDE8F0877E
:1006D0002DE9F1434848E8464FF0FF360078E8B18D
:1006E000484D2888D0B100F0F5F92888002400286A
:1006F00088BF454F0FD900BFC4EBC40007EB4000D3
:10070000042241460A3001F060FB58B1601CC4B2BB
:1007100028888442F0D300F0E7F919E04FF0FF3069
:10072000BDE8F883C4EBC40007EB4000041D00F0F3
:10073000DBF906223549204601F047FB58B1062275
:100740003349204601F041FB002818BF002602D0A3
:100750003046BDE8F8834FF0FF36F9E700207047D8
:100760000020704710B5254CFF2120463BF074FC5B
:1007700028484FF4C1634FF0080C0169C4F8061013
:10078000828A6281A3814FF48073E381A4F810C050
:100790004FF0060C84F812C04FF0040C84F813C01C
:1007A000A382C4F8161062838069E06104F120001E
:1007B0003BF045FC0020C4F82600C4F82A00C4F829
:1007C0002E00C4F83200C4F836000D4AC4F83A00CE
:1007D000E08704F1400111602A220A80488010BDA0
:1007E00090F82010202984BF4FF0FF30704710B5DB
:1007F00000F0F5FC002010BD08020010F8200010E9
:10080000000200103E03001060240010C2A1060880
:10081000C8A1060880210010B84A126F02B1104723
:10082000FEE770B50C46B8B10546FFF797FF0646E0
:10083000284600F091FC0644284600F029FA0644B8
:10084000284600F06CFA0644284600F067FC304465
:10085000002C18BF206070BDE120A84AA8A1126F2B
:1008600012B19047002070BDFEE710B5A34C606F39
:10087000002808BF10BD80470028AB49086018BF9A
:1008800010BDE020226FA9A112B1BDE810401047B1
:10089000FEE770B5A44D416F81B1816F974C00297F
:1008A0001FBFC16F0029D0F8800000280DD0606FF5
:1008B000002818D08047286080B114E000218167AB
:1008C000C167C0F8801029600DE0226FE320A7A166
:1008D0001AB190474FF0FF3070BDFEE7226FE02065
:1008E00092A112B19047002070BDFEE710B5D8214B
:1008F000824801F0D5FB8C490020086010BD2DE92D
:10090000F0417E4C8846050007D02A6F2267287880
:1009100050B1E420A0A132B12EE0226FE120ABA1C2
:10092000002A29D1FEE7FEE7B1480078012804D06B
:100930002846FFF755FF20B11AE0E020ADA1DAB953
:10094000FEE7D8216D4801F0ABFB774F0026284623
:100950003E6000F01FFC58B9284600F09FF938B9F6
:10096000284600F0E2F918B9284600F0DDFB40B156
:10097000AA49226FE3205AB190474FF0FF30BDE8FB
:10098000F08141462846FFF7EBFE002875D100E0D4
:10099000FEE72846FFF7E2FE20F0030080444146D0
:1009A000284600F0DBFB002867D1284600F0D4FB86
:1009B00020F0030080444146284600F06BF90028EF
:1009C0005BD1284600F064F920F0030080444146E2
:1009D000284600F0A6F900284FD1284600F09FF9DC
:1009E00020F0030000EB0801284600F099FB0028E6
:1009F00043D1284600F092FBD82229463F4801F017
:100A0000B6FA3E4D2846FFF7ADFE002835D1686F97
:100A100060B1A96F00291FBFE96F0029D5F88010C8
:100A2000002909D08047386068B111E0AE67EE67F1
:100A3000C5F880603E600BE0226FE3204BA10AB155
:100A400090471AE0FEE7226FE02038A12AB19047D4
:100A5000284600F085FB80B900E0FEE7284600F05C
:100A60001BF950B9284600F05EF930B9284600F06D
:100A700059FB002808BFBDE8F0814FF0FF30BDE80A
:100A8000F08170B504000D4616D0FFF767FE0646EC
:100A9000204600F061FB0644204600F0F9F80644C9
:100AA000204600F03CF90644204600F037FB304475
:100AB000002D18BF286070BDE120104A10A1126FF0
:100AC00012B19047002070BDFEE718E70020704784
:100AD0000020704714480068002808BF7047074A84
:100AE000D2F88010926F10470F480068002808BFA6
:100AF00070470249C96F084700687047802100109D
:100B00006970616C5F626173655F6D656D6F72794D
:100B10005F67657473697A652829206E65656473FB
:100B20002061206366670000040200106970616C38
:100B30005F626173655F6869645F74687265616450
:100B40007361666574795F696E697428293A2063F8
:100B5000616E6E6F7420616C6C6F6361746520747C
:100B60006865206D75746578000000006970616CBF
:100B70005F626173655F696E697469616C697365F1
:100B80002829206E65656473206F73616C2066751B
:100B90006E6374696F6E73006970616C5F6261731C
:100BA000655F696E697469616C69736528293A20AB
:100BB000756E737570706F72746564207463702FD6
:100BC000697020737461636B000000006970616C70
:100BD0005F626173655F696E697469616C69736591
:100BE00028293A206D697373696E67206366670010
:100BF000080200106970616C5F626173655F696E05
:100C0000697469616C69736528293A20616C726541
:100C100061647920737461727465640084AB060842
:100C200031B524486C46007838B1234890F82C0040
:100C300018B19DF80000EF2802D04FF0FF3038BD0A
:100C4000FFF748FF204640F0E5F8002814BF0024D5
:100C50004FF0FF34FFF748FF204638BD31B5154847
:100C60006C46007888B1144890F82C0068B1FFF702
:100C700031FF204640F0F6F800280CBF4FF0FF345B
:100C80000024FFF731FF204638BD4FF0FF3038BD5C
:100C900000207047002070470020704790F82D100A
:100CA000062984BF4FF0FF30704710B500F019FBE4
:100CB000002010BD0802001080210010224810B54D
:100CC000406848B12148017801290CD00121017008
:100CD00040F07CFB002010BD1DA1E120FFF79CFD32
:100CE0004FF0FF3010BD24A1E020FFF795FD4FF03D
:100CF000FF3010BD10B5FFF7EDFE40F083FDBDE8FD
:100D00001040FFF7F1BE10B5FFF7E4FE48F02AFDF2
:100D1000BDE81040FFF7E8BE0B4840687047002070
:100D2000704700207047002070470189B1F5C05F0F
:100D300084BF4FF0FF30704710B50021034A117097
:100D400000F027FB002010BD8021001008020010D9
:100D50006970616C5F7379735F7374617274282951
:100D60003A206D697373696E6720636F6E66696799
:100D700075726174696F6E006970616C5F7379730D
:100D80005F737461727428293A2063616E6E6F74A8
:100D900020737461727420616761696E00000000E5
:100DA00008B1062801D900207047F0B515460A465B
:100DB000E64900EB400085B001EBC000A0F118044B
:100DC00050F8080C0A9F1E4698B11046FFF794FE93
:100DD0000346E06820B1984204BF2089A84208D1A8
:100DE0000396ADF808700095D4E904C002AA214624
:100DF000E04705B00020F0BD4107090EC0F3C00276
:100E000041EA0211C0F3001210B541EAC201C0F379
:100E1000401041EA8004CE480078002808BF10BD89
:100E2000FFF758FECB4A0121204648F0BFFCC0B175
:100E3000C64900EB400201EBC20404F8180C002084
:100E400024F8160C44F8140C24F8100C44F80C0C7C
:100E500044F8080C44F8040CFFF746FEA4F118000F
:100E600010BDFFF741FE002010BD70B504001CBF8F
:100E70002078002821D0FFF72DFE6088002518B1CA
:100E8000207848F075FC6580207848F0F1FC064633
:100E90002078AE4900EB400001EBC00000F8185C80
:100EA0002570658065602581E56025616561FFF7D6
:100EB0001BFE002E1CBF002070BD4FF0FF3070BD28
:100EC00070B515460E4604001DBF20780028002D81
:100ED0004FF0FF3008BF70BDFFF7FCFD608820B108
:100EE000207848F045FC002060809849002000BF31
:100EF00000EB400201EBC2025288AA4210D0401C13
:100F0000C0B20628F4D32078294648F073FC10F0CC
:100F1000FF0F05D065806660FFF7E6FD002070BD1D
:100F2000FFF7E2FD4FF0FF3070BD2DE9F04790462E
:100F30000F46040019BF207800284FF0FF30BDE8AD
:100F4000F087FFF7C7FD608850BB20780026454634
:100F5000002818BF002D2DD0FFF7BCFD60884FF092
:100F6000000920B1207848F003FCA4F802907749EA
:100F7000002000BF00EB400201EBC2025288AA42EF
:100F800016D0401CC0B20628F4D32078294648F079
:100F900031FC10F0FF0F0BD065806660FFF7A4FDF9
:100FA000A4F80880E760FFF79FFD0020BDE8F08708
:100FB000FFF79AFDFFF798FD4FF0FF30BDE8F0878F
:100FC00010B5040019BF207800284FF0FF3010BD85
:100FD000FFF780FD00202081E060FFF785FD002005
:100FE00010BD2DE9FF4182B098460C46050004AFC4
:100FF0001CBF2878002828D06888002818BF002C3B
:1010000023D0606800281CBF208800281DD0FFF76F
:1010100061FD208848F0C2FB06001BD02288616871
:1010200000F01EFF2088009028783346424639465B
:1010300048F036FC00280CBF4FF0FF340024FFF7C7
:1010400053FD06B02046BDE8F08106B04FF0FF30FA
:10105000BDE8F081FFF748FD06B04FF0FF30BDE876
:10106000F0812DE9F04383B00C4605001CBF688871
:1010700000283CD0E86800281CBF2889002836D00A
:10108000FFF728FDE86801902878B5F808900DF181
:1010900004084FF0FF3600281CBF6888002820D0C5
:1010A000002C1FBF606800282088002819D0FFF797
:1010B00011FD208848F072FB070010D0228861687B
:1010C00000F0CEFE2088009028783B464A464146F4
:1010D00048F0E6FB00280CBF4FF0FF360026FFF774
:1010E00003FDFFF701FD03B03046BDE8F08303B018
:1010F0004FF0FF30BDE8F083002812BF00294FF009
:10110000FF30704770B516460D460446FFF7E2FC07
:10111000C4E90456FFF7E8FC002070BD00207047CA
:10112000002070470020704710B5044690F830004A
:10113000062884BF4FF0FF3010BD9021034800F017
:10114000AFFF204600F08AF9002010BD58220010A1
:1011500008020010A10D020800207047002070470F
:1011600010B5D0F88C1000291CBFD0F890100029C1
:1011700008D0D0F8941000291FBFD0F8980000289C
:10118000002010BD06A14FF0E100FFF745FB4FF036
:10119000FF3010BD10B500F095F8002010BD000024
:1011A0006970616C5F6574685F6869645F696E69C6
:1011B0007428293A206D697373696E6720657468B5
:1011C0002066756E6374696F6E730000A94890F8AD
:1011D0002200012818BF704700203BF021BA10B54B
:1011E00004464FF4E071A44800F05AFFA34894F875
:1011F0002010C180A249626AB2FBF1F2028194F828
:1012000021200270A26AB2FBF1F14170002010BDF2
:101210009848D0F89C00002808BF70470047002974
:101220001CBF002070473BF059BA10B5954A84B0F6
:101230009069D2E90812CDE902128E4A0090907AA4
:101240008DF8000090480190904890F803C0818884
:1012500083784FEA0C6441EA1C214FEA134C44EABC
:10126000034341EA0C0490F801C0007843EA0C23E0
:1012700044EA1C611843CDE90201D2F88C1068469B
:1012800088477E49487104B010BD7A49D1F898105A
:10129000084710B5774CD4F890008047D4F8880000
:1012A000002808BF10BDBDE81040004710B5714CC4
:1012B000D4F88400002818BF8047D4F89400BDE813
:1012C000104000476D4902694A61808A0883002006
:1012D0007047684991F82C10012918BF704742F0F7
:1012E000DBBB654A0021664BC2F8C011C2F8C411CD
:1012F000C2F8C811C2F8CC11C2F8D011C2F8D4118A
:10130000C2F8D811C2F8DC11C2F8E01142685B499A
:10131000B3FBF2F290F82D00488192B24CF6CD402A
:101320005043800C887000207047062806D2584928
:1013300001EB4011F030C0B2FFF76EBA55A1E020CA
:10134000FFF76ABA10B540F071F84A4C94F82C00D7
:10135000012808BF40F07CF894F82F00012808BF4E
:1013600040F09EF894F82200012818BF10BD00201C
:10137000BDE810403BF054B910B544F04BFA3D487D
:1013800090F82C00012818BF10BDBDE8104044F0B3
:1013900099BA2DE9F041384D00260446C5F8E461BC
:1013A000C5F8E861C5F8EC61C5F8F061C5F8F4610D
:1013B000C5F8F861C5F8FC61C5F80062C5F80462BB
:1013C000C5F80862C5F80C62C5F81062C5F8146269
:1013D000C5F818624FF4C05105F50870C5F81C62D5
:1013E00000F05EFE05F5C057C022C7F82862C7F8B6
:1013F0002C62A169C5F8E411E169C5F8EC1105F5A5
:10140000F271A8230A734B738E734FF0FE0C81F8B0
:101410000FC00A744B748E7481F813C00A714B713B
:10142000184A8E7181F807C0D2E90012C7E9881204
:1014300012480121124AC170218901616168B2FB21
:10144000F1F18181C6810020BDE8F081094991F860
:101450002F10012918BF704742F05EBB10B504463B
:101460004821124800F01CFE044894F83010017125
:10147000002010BD802100106024001038030010EF
:1014800040420F0020A4060828A406084C030010C0
:1014900048A40608756E6B6E6F776E20737973744F
:1014A000656D206572726F7200000000903E001042
:1014B000004870470041001070B5A0FB0140B4F136
:1014C000805170F1000024BF002070BD204600F064
:1014D000E5FE05001CBF214600F0C0FD284670BD9A
:1014E00070B516460D46041F002808BF70BD002EBB
:1014F0001CBF05F10800AFF300802B465868002898
:1015000018BFA04238BF0346F8D31968CA18A242D0
:1015100018BF5C6003D122681C4611441960216821
:101520000A19824218BF606004D142686260006894
:1015300008442060002E1CBF05F10800AFF30080B6
:1015400070BD10B5044600F014FE01682046BDE8E9
:1015500010400122C4E70844401E491E88437047DA
:101560000821001DF7E72DE9F0410F468046041FD2
:1015700000F0FFFD066807B3B8F1000F384622D02F
:10158000FFF7EEFFB84205463CBF0020BDE8F08102
:1015900006F10800AFF300802268AA4238BF314646
:1015A00015D3511B082931D36019002240F8041BC0
:1015B00031462560FFF794FF28E04046FFF7C1FF62
:1015C0000020BDE8F081BDE8F04100F067BE48684A
:1015D000002818BFA04238BF0146F8D31319834230
:1015E0001BD103681A44954217D8531B082B0AD302
:1015F000436862195360236800681844401B1060F8
:1016000025604A6002E022604068486006F10800F8
:10161000AFF30080201DBDE8F0810022314638463E
:1016200000F0FBFD05000AD041462068021F284655
:1016300000F09DFC00223146201DFFF751FF06F10E
:101640000800AFF300802846BDE8F08153EA020CA1
:1016500000F069802DE9F04B4FF00006002B1FBF12
:10166000B3FA83F503FA05F424FA05F65E4012BFD7
:101670001643B2FA82F502FA05F4C5F120051EBF41
:1016800022FA05FC44EA0C04203556EA044C4FEAE1
:10169000144418BF641C4FF000084FF0000990423A
:1016A00071EB030C39D3002919BFB1FA81F701FAA4
:1016B00007F6B0FA80F700FA07F6C7F120071EBF59
:1016C00020FA07FC46EA0C062037B6FBF4FCA7EB31
:1016D0000507103F07F01F0BCBF120062CFA06F68A
:1016E0000CFA0BFB44BFB3460026202FA4BF5E4676
:1016F0004FF0000B5BEA060C08BF4FF0010B19EB33
:101700000B0948EB0608ABFB027C06FB02CC0BFB8B
:1017100003CCC01B71EB0C01C1E70B4602464146EE
:101720004846BDE8F08B13B5084318BF4FF0FF30B3
:101730000146AFF30080BDE81C4070470FB41CB5F4
:10174000084B06AA7B4469460090059801F0D1F841
:1017500004460020694601F0DFF820461CBC5DF815
:1017600014FB0000D11100000FB41CB50C0007AA37
:10177000009007D04142A14202D32044401E01E024
:101780004FF0FF30074B7B4469460190069801F00B
:10179000B0F80021002C01D0009A11701CBC5DF83B
:1017A00014FB00009911000070B5044685690068BB
:1017B000C10601D5302600E02026C00707D070BD45
:1017C000D4E9012130469047206A401C20626D1EFA
:1017D000F6D570BD70B5044685690078C00707D19D
:1017E00070BDD4E9012120209047206A401C20626E
:1017F0006D1EF6D570BD70B50C460546012A05D0A4
:101800002878800600D5EA69002302E0012305E07C
:101810005B1C934202D2E05C0028F9D1A869E6186B
:10182000C01AA861286A184428622846FFF7BCFF3E
:1018300004E0D5E9012114F8010B9047B442F8D334
:101840002846FFF7C7FF70BD2DE9F041064600248A
:1018500010687529314616A510D001F03AF9002814
:1018600002DA404213A507E031688A0701D512A5C4
:1018700002E0490704D511A5012401E001F032F985
:1018800000210A2206F1240709E0B0FBF2FCB0FBBC
:10189000F2F302FB1C00303078541846491C002833
:1018A000F3D123462A463046BDE8F04100F0B4BDEE
:1018B000000000002D0000002B00000020000000B0
:1018C0002DE9F0418046D21D22F007020025D2E921
:1018D0000002F52915A614D0011E72F1000106DAE6
:1018E0000023D0EB030063EB020211A608E0D8F856
:1018F00000108B0701D50FA602E0490701D50EA6FF
:1019000001251146002408F1240704E000F03AFD07
:1019100030323A55641C50EA0102F7D12B46324668
:1019200021464046BDE8F04100F076BD00000000D1
:101930002D0000002B00000020000000F0B40D4638
:101940000188090502D5214C7C4402E01F4C7C44EF
:101950000E34002100F1240608E002F00F071209FE
:10196000E75D42EA03721B097754491C52EA0307F8
:10197000F3D102780023120704D5702D06D009B1E7
:10198000022311342246F0BC00F046BD012310347E
:10199000F8E770B504460D462146106801F0A2F83C
:1019A000024629462046BDE870400023C6E7D21D06
:1019B00022F00703D3E90023C0E70368126843F06D
:1019C000200303600823C3610023B7E72E910400BE
:1019D0002DE9F05F894604464FF0000ADFF874B144
:1019E000FB44C0F820A02046E1688847002874D056
:1019F000252806D0D4E901219047206A401C2062A6
:101A0000F1E700265F462046E16888472028054622
:101A100007DB312D05D2781910F8200C08B10643E8
:101A2000F1E7B00701D526F00406C4F81CA0002792
:101A3000C4F818A02A2D09D028463AF051FB38B333
:101A400004EB8708303DC8F8185019E059F8041B1A
:101A5000204604EB87029161E1688847012F054623
:101A600018D1E069002820DA26F020061DE0D8F819
:101A7000180000EB800005EB40003038C8F8180073
:101A80002046E168884705463AF02AFB0028EED157
:101A9000012F0AD02E2D08D12046E16888477F1CEF
:101AA0000546022F46F02006C4DBA069002803DAB1
:101AB000404246F00106A061F00701D026F0100672
:101AC0006C2D0BD0682D09D04C2D39D06A2D35D016
:101AD000742D35D07A2D33D016E038E0E1682F46EA
:101AE00020468847B842054609D16C2F26D04FF4CE
:101AF0008060E168064320468847054604E06C2F75
:101B00001AD04FF4807006430DB3A5F14100192897
:101B100002D8203546F400664A462946204626600B
:101B20004E46FEF7E9FB80B101280BD0F61D26F0EA
:101B3000070000F1080956E74020E4E78020D8E7D5
:101B40000020D6E706F104094DE7284652E7206A4F
:101B5000BDE8F09FBE9004000FB400B58DB010A991
:101B6000099000910B904FF0FF300A9000200C90EC
:101B7000064878440690064878446A4607900F99CC
:101B800009A800F001FF0DB05DF814FB330E000052
:101B90004B0E00002DE9FF5F1D464FF0FF3B9146C5
:101BA0004FF000085F46D5E90146A96901987F1CFE
:101BB0008847296A824688470028F6D1BAF1FF3F54
:101BC0000CD0002E24F4C06419DD600614D5BAF1DF
:101BD0002B0F09D0BAF12D0F0ED103E0584604B0F7
:101BE000BDE8F09F44F48064A96901987F1C884790
:101BF000761E8246002E02DDBAF1300F03D0B9F115
:101C0000000F26D032E0A969761E01987F1C44F4AB
:101C100000748847002E824605DDBAF1780F06D0A1
:101C2000BAF1580F03D0B9F1000F10D01EE0B9F18E
:101C3000000F02D0B9F1100F18D1A969761E0198D2
:101C40007F1C24F4007488478246102002E008209C
:101C500000E00A20814609E0A96908FB0908761E10
:101C600001987F1C44F4007488478246002E05DDED
:101C70004946504600F073FE0028EDDAE969019804
:101C80008847A00502D46FF00100A8E7E00725D13E
:101C9000600613D5600502D5C8F1000000E040469B
:101CA00029680A1D2A600968220501D5087015E017
:101CB000220701D5088011E008600FE02868011DA7
:101CC00029600068210502D580F8008006E0210720
:101CD00002D5A0F8008001E0C0F8008038467EE719
:101CE0002DE9FF5F4FF0000899461446464691697A
:101CF000D2E901A7DDF838B001988847054659EACE
:101D00000B0005D009E0A1690198761C88470546BB
:101D1000216A284688470028F5D1681C03D05FEA6D
:101D2000CA7005D015E04FF0FF3004B0BDE8F09F59
:101D30002068011D2160D0F800800AE05FEACA70C7
:101D400001D108F8015BA169761C01987F1E8847C4
:101D50000546002F1ADD681C18D0B9F1000F0DD010
:101D6000E81705EBD060421120F01F0059F822104F
:101D70002A1A012090400142E0D107E0BBF1000F98
:101D8000DCD12846216A88470028D7D0E16901982C
:101D90008847BBF1000F07D1002E05DD5FEACA704E
:101DA00002D1002188F80010A068B84203DDBBF121
:101DB000000F03D017B16FF00100B6E73046B4E76B
:101DC0000B460146184600F01ABE40EA010310B562
:101DD0009B070FD1042A0DD310C808C9121F9C42BB
:101DE000F8D020BA19BA884201D9012010BD4FF0AD
:101DF000FF3010BD1AB1D30703D0521C07E00020FA
:101E000010BD10F8013B11F8014B1B1B07D110F856
:101E1000013B11F8014B1B1B01D1921EF1D1184659
:101E200010BD10B5431C02E010F8011B71B1810711
:101E3000FAD14FF0013202C88C1A8C4314EAC21155
:101E4000F9D0C01A0A0603D0C01E10BDC01A10BDBA
:101E50000A0401D0801E10BD0902FCD0401E10BD36
:101E6000032A40F2308010F0030C00F0158011F8C6
:101E7000013BBCF1020F624498BF11F801CB00F89E
:101E8000013B38BF11F8013BA2F1040298BF00F8F2
:101E900001CB38BF00F8013B11F0030300F067806D
:101EA000083AC0F0088051F8043B083A51F804CBD6
:101EB000A0E80810F5E7121D5CBF51F8043B40F89C
:101EC000043BAFF30080D20724BF11F8013B11F8A7
:101ED00001CB48BF11F8012B24BF00F8013B00F8EB
:101EE00001CB48BF00F8012B7047431A28BF9A4224
:101EF0007FF6B6AF10441144032A40F2268010F05A
:101F0000030F1EBF11F8013D521E00F8013D10F0F5
:101F1000030F7FF4F6AF11F0030300F06D80083A71
:101F2000C0F00B8051F8043D083A51F804CD40F858
:101F3000043D40F804CDFFF7F3BF121D5CBF51F81C
:101F4000043D40F8043DAFF30080D20724BF11F8F0
:101F5000013D11F801CD48BF11F8012C24BF00F854
:101F6000013D00F801CD48BF00F8012C704710B5C5
:101F7000203AC0F00B80B1E81850A0E81850B1E842
:101F80001850A0E81850203ABFF4F5AF5FEA027C81
:101F900024BFB1E81850A0E8185044BF18C918C0B1
:101FA000BDE810405FEA827C24BF51F8043B40F852
:101FB000043B08BF7047D20728BF31F8023B48BF37
:101FC00011F8012B28BF20F8023B48BF00F8012B75
:101FD0007047431A28BF9A427FF6C9AF1044114494
:101FE00010F0030F1EBF11F8013D521E00F8013D15
:101FF00010F0030F7FF4F6AF103AC0F00A8010B56E
:1020000031E9185020E91850103ABFF4F9AFBDE893
:102010001040530724BF31E9081020E9081044BFDD
:1020200051F8043D40F8043D12F0030F08BF70471B
:10203000D20728BF31F8023D48BF11F8012C28BF54
:1020400020F8023D48BF00F8012C704702F0FF0362
:1020500043EA032242EA024200F002B84FF00002D3
:102060000429C0F0128010F0030C00F01B80CCF1AA
:10207000040CBCF1020F18BF00F8012BA8BF20F818
:10208000022BA1EB0C0100F00DB85FEAC17C24BF6C
:1020900000F8012B00F8012B48BF00F8012B704716
:1020A0004FF0000200B5134694469646203922BFF1
:1020B000A0E80C50A0E80C50B1F12001BFF4F7AF3C
:1020C000090728BFA0E80C5048BF0CC05DF804EB1E
:1020D000890028BF40F8042B08BF704748BF20F88C
:1020E000022B11F0804F18BF00F8012B7047000041
:1020F00030B44FF0013C50F8042B51F8043BCCFABB
:1021000052F4D51A20D1FCB950F8042B51F8043BF5
:10211000CCFA52F4D51A17D1B4B950F8042B51F8AF
:10212000043BCCFA52F4D51A0ED16CB950F8042BFA
:1021300051F8043BCCFA52F4D51A05D1002CDAD070
:1021400030BC4FF00000704729BAB1FA81F111F0AC
:102150001801D1F120008440F2D1CA40CB4012F0E6
:10216000FF0213F0FF0330BCD01A7047704770476E
:10217000704710B5FFF79CF9083010BD70477047E5
:102180007047704738B504460A4600206946AFF3E9
:102190000080002808BF38BD02460099204600F0A4
:1021A0006DFC012038BD012001F0C8B8F8B5AFF3CF
:1021B0000080054600200C460C2000BF0646A819EA
:1021C000A0420DD9324669460020AFF300800700D7
:1021D00008BF01F0B3F80098A04218BF0546C41923
:1021E000FFF7C7FF05600746F01D20F007004619FE
:1021F000284600F033FCB44208BFF8BDA21B3146AC
:102200003868BDE8F84000F039BC0844401E491E5B
:10221000884370470821001DF7E72DE9F041174674
:102220000E460446FFF7F6FFA042054633D9002FBD
:102230001CBF06F10800AFF3008030467468F4B1AB
:102240002168A94217D305F1080291423CBF616899
:10225000416007D3626861194A602268521B0A60B4
:1022600041602560002F1CBF06F10800AFF300801D
:10227000201DBDE8F08120466468002CE0D129468D
:102280003046FFF77FFF0028D7D1002F1CBF06F193
:102290000800AFF300800020BDE8F08110B50446CF
:1022A000FFF767FF01682046BDE810400122B4E750
:1022B0000844401E491E884370470821001DF7E767
:1022C0002DE9F04791460C468046FFF752FF06681D
:1022D000604234EA000001D1042C02D20520BDE89E
:1022E000F087601E40F007074846FFF7E6FF4845C5
:1022F00005469CBF0620BDE8F08706F10800AFF355
:10230000008074683046002C2FD02368211D49427C
:1023100007EA0102934224D9991A8D4221D84AB181
:10232000214614440B689B1A23604B6863600A6063
:1023300041600846226805F108018A4205D3611907
:10234000521B0A602560416008466168416006F1E1
:102350000800AFF30080241D0020C8F80040BDE84D
:10236000F08720466468002CCFD129463046FFF71D
:1023700009FF0028C5D106F10800AFF30080062050
:10238000BDE8F08730B5B0F10A0271F100034FEA01
:10239000900E4EEA817EB0EB0E0061EB91014FEAA8
:1023A000101E4EEA017E10EB0E0041EB11114FEAB8
:1023B000102E4EEA016E10EB0E0041EB11214FEA98
:1023C000104E4EEA014E10EB0E0041EB1141401849
:1023D00041F100014FEAD00040EA41704FEAD101DB
:1023E0004FEA810444EA907410EB800544EB010449
:1023F0006D1944EB0404521BA3414FF0000348BF86
:102400000A3200D530BD401C41F1000130BD0B4601
:102410000146184601F02EBD2DE9F0470D469946BC
:102420009246044600F124080168880604D5E06954
:1024300021F01001216000E00120A84201DD471BCE
:1024400000E00027A1697A1902EB0900081AA061CF
:102450002078C00602D42046FFF7A6F9002608E03F
:10246000D4E901211AF806009047206A401C761C26
:1024700020624E45F4DB2078C0060AD52046FFF7DF
:1024800093F906E0D4E9012130209047206A401CEE
:102490002062381EA7F10107F4DC07E0D4E901212E
:1024A00018F805009047206A401C2062281EA5F1FC
:1024B0000105F3DC2046FFF78DF92078000602D5F0
:1024C0000220BDE8F0870120FBE72DE9FF4F0C4615
:1024D0001E464FF0FF378BB0D2E90001DDF8608077
:1024E0000A908A46C1F30A5505B93D4600210846BF
:1024F0004FF00000BAF1000F00F4400005DA00EBE5
:1025000080004FF4400101EA50004FEA9059B9F1C0
:10251000010F00DDB9460A9850EA4A000ED044F691
:102520001050A5F2FF3545432F14B8F1000F1ED00F
:102530007542291E1EDDC9F100021CE0B8F1010F31
:102540004FF0000001D0302103E0F24305E02154B8
:10255000401CB042FBDB30460022002121540B9985
:10256000C1F80880C1E900200FB0BDE8F08FBD1BA5
:102570006D1CDEE74A4600DA694206A800F060FDFD
:1025800006AB93E8070003AB83E8070050460A99BF
:1025900037F0A6FA8DE80700A0F500501F3800902C
:1025A0000398002D0ADD42F21F014A460844002329
:1025B00003A90390684637F00FFD09E0A0F500502D
:1025C0004A461F38002303A90390684637F019FDD7
:1025D0008DE807000004000C03D04FF0FF304108E5
:1025E00000E01046B8F1000F03D00022009215461B
:1025F0001EE0751E05D4FFF7C5FE303262556D1E14
:10260000F9D5B3460122084302D000227F1C04E022
:102610002078302801D100227F1E002A099784D01B
:102620001DE0112D07DAFFF7ADFE303262556D1C4B
:1026300050EA0102F5D1084302D00098C8B10EE07B
:102640000021681E05E0235C625C63542254401E36
:10265000491C8142F7DBAB46A81B401E09900020B5
:1026600004F80B000B98099AC0F80880C0E9002B09
:102670007AE711264FF0000857E72DE9F04F88461A
:102680000446D21D22F0070191B0D1E90001CDE945
:102690000A0139F0E9FC02460B98C00F01D02D2049
:1026A00007E02068810701D52B2002E0202101EA04
:1026B000C000032A099001D0072A05DB03464146E2
:1026C000204600F02DFA0BE12078800601D5E06964
:1026D00000E00620B8F1650F814606D0B8F1660F1C
:1026E00018D0B8F1670F70D131E00020B9F1110FA7
:1026F000009001DB112301E009F101030AAA01A9FD
:102700000CA8FFF7E2FEDDE90C70002609F10105D7
:10271000834647E001204B4600904FF000470AAA4D
:1027200001A90CA8FFF7D1FEDDE90DB00C995D46BB
:10273000002610B909F101000D18B9EB050003D40A
:10274000C0F1FF3609F10105A5EB09002BE0B9F155
:10275000010F01DA4FF001090020B9F1110F0090CB
:10276000484601DD112300E003460AAA01A90CA88E
:10277000FFF7ABFEDDE90C704D460026834620785E
:1027800000070AD4AB4500DA5D4601A8012D04DD3F
:10279000411911F8011C302907D04F4502DA17F111
:1027A000040F04DA012082460FE06D1EEEE7002FD1
:1027B00002DCED1B3E4403E0781CA84200DD7D1CDA
:1027C000B81B00F1010A4FF000472078000703D43E
:1027D000AA4501DB4FF0FF3A0021B7F1004F0DF1A0
:1027E00043088DF8431024D002202B23002F01DA58
:1027F0007F422D230A21021EA0F1010000DC5FB1FF
:1028000097FBF1FC97FBF1F201FB1C7C17460CF1E6
:10281000300C08F801CDEEE7A8F101000370218823
:10282000090501D5452100E06521A0F1010800F866
:10283000011C09980FA9A1EB0807FF1D00B1012099
:10284000411901EBEA70A1693844081A401EA061E1
:102850002078C00602D42046FEF7A6FF099828B1CA
:10286000D4E901219047206A401C20622078C006EC
:1028700022D52046FEF798FF1EE0002E04DBB3456C
:1028800002DD01A8805D00E03020D4E901219047FD
:10289000206A401C2062761CAAF101005FEA000A4F
:1028A0000AD100F0D1F8C0680168405CD4E9012188
:1028B0009047206A401C2062281EA5F10105DCDC3F
:1028C00007E0D4E9012118F8010B9047206A401C69
:1028D0002062381EA7F10107F3DC2046FEF77AFFDD
:1028E000032011B041E6000001694A1C026108782A
:1028F000704700B58FB0CDE9013100210591054940
:102900007944CDE9031011466846FFF761F80FB02E
:1029100000BD0000E5FFFFFF0A6802F8010B0A6036
:102920007047D1E900239A4202D2531C0B60107009
:10293000704710B5436913B1AFF3008001E0FEF7B3
:102940005AFF012010BD127800F124010A70002204
:102950004A700122EDE711684FF0FF32E9E73A28AB
:1029600000D2303820F02002412A01D3A2F13700F2
:10297000884201D34FF0FF307047000002681144D5
:102980001378016018467047D16005497944516158
:1029900004497944116200211161114600F096B991
:1029A000EDFFFFFF2B010000426842B1016811F802
:1029B000013B23B1521EC0E90012184670470121A5
:1029C000C160881E704742685AB1C368016843B944
:1029D00083688B4205D0491E521CC0E900120020BA
:1029E00070474FF0FF30704710B5002000F09FFC9B
:1029F000FDF7FDFBBDE81040012000F017B82DE900
:102A0000F041074615460E461020FFF747FC04002C
:102A10000AD06760C4E9026500F01BF80168216014
:102A200004600020BDE8F0810120FBE70149182087
:102A3000ABBEFEE72600020010B500F005F8001D51
:102A400010BD00BF956F040010B5FEF731FD2030BA
:102A500010BD10B5FEF72CFD383010BD002140F838
:102A6000041B40F8041B15F0F7B90C207047801ABE
:102A70000844401E491E88431044704770B51446F0
:102A800005468C464368002B18BF634538BF18467F
:102A9000F8D302681044604508D0664660460422B8
:102AA0000821FFF7E4FF811B8446641A2946CCF80D
:102AB0000040BDE8704000220CF10400FEF710BD9C
:102AC00010B50446FFF7B8FF0068005D00F0010094
:102AD00010BD09684A0501D540B27047C905FCD54B
:102AE00000B2704709684A0501D5C0B27047C905F0
:102AF000FCD580B2704711680268006A530501D5A1
:102B000008700AE0D30501D5088006E0130603D556
:102B1000C217C1E9000200E0086001207047000010
:102B20002DE9F0411F46044603260168072A01F4F7
:102B3000006004DB08B116A505E016A503E008B1A6
:102B400015A500E015A521F010002060A069C01EA9
:102B5000A0610FB1401EA0612046FEF725FE4FB1D7
:102B6000D4E9012138469047206A401C2062C01CED
:102B7000206206E0206AFAE7D4E9012115F8010B8A
:102B80009047761EF8D22046FEF724FEBDE8F0817D
:102B90004E414E006E616E00494E4600696E660001
:102BA0002DE9FF5F15468A460446DFF8AC80F844FD
:102BB0000027D8E900103E46CDE9001010E03AF8B1
:102BC00016106A4602A800F07BFE411C07D021784F
:102BD000890603D5E269391891420DD80744761C5D
:102BE0002078800602D5E069B84205DDAE42E6DB1A
:102BF0003AF816000028E2D1A069C01BA061204667
:102C0000FEF7D2FDD8E90010CDE90010002017E052
:102C10003AF818106A4602A800F052FEB0F1FF3FE1
:102C200081460BD000250DF1080B05E0D4E9012108
:102C30001BF8050090476D1C4D45F7D308F10100C6
:102C4000B0428046E4DB206A384420622046FEF72A
:102C5000C1FDBDE8FF9F0000027F040030B40021E9
:102C600000F1240408E002F00705D208303542EAFA
:102C70004372DB086554491C52EA0305F3D104682A
:102C8000002310A2250708D504F020040C4304D02B
:102C9000C46901230CA2641EC46130BCFFF7BCBB35
:102CA00010B5044621461068FFF71CFF0246204677
:102CB000BDE810400023D1E7D21D22F00701D1E981
:102CC0000023CBE700000000300000002DE9F34FA7
:102CD0004FF0000A0C4656468DB001200C9001F1D1
:102CE0000C000B9062690B9801219047051E2DD0B6
:102CF000252D2CD0216A8847C0B162690B9801212B
:102D00009047216A88470028F7D16269411E0B98D5
:102D1000904700E0761CA1690D988847216A884792
:102D20000028F7D1E1690D988847DBE7A1690D9884
:102D30008847A842074601D1761CD3E7E1690D9880
:102D400088477F1C02D1BAF1000F6FD06BE1626936
:102D50000B9800273D46394690472A2804D16269DE
:102D60000B98012190470125DFF8D08262690B980A
:102D700001219047A0F130010A290AD24745E5DC3C
:102D800007EB870100EB4107303FDFD445F010052A
:102D9000ECE7E90601D46FF000476C280AD04C2814
:102DA00014D0682815D06A280DD074281CD07A2831
:102DB0001AD01DE062690B98012190476C2802D05F
:102DC00045F0040514E045F002050DE045F020054E
:102DD0000AE062690B9801219047682802D045F00B
:102DE000080505E045F4006562690B9801219047EC
:102DF000C4E9015765283DD019DC58287AD00CDC8D
:102E0000452837D004DC252826D041289ED131E042
:102E100046282FD0472899D12CE05B2877D061280D
:102E200028D063287CD0642823D15AE0F6E06F28AC
:102E300048D008DC66281DD067281BD0692821D01F
:102E40006E2816D127E0702845D0732868D07528E1
:102E500047D078280DD14DE0A1690D9888472528E5
:102E600005463FF469AFE1690D9888476D1C3FF452
:102E70006AAFD8E00D9923466A466FF00100AFF3C0
:102E80000080C5E045F0400023464FF0000260603E
:102E9000A80736D43EE0E8077FF447AF2068011D5D
:102EA00021600068290501D506701BE7290701D5B7
:102EB000068017E7A90703D5F117C0E9006111E7FC
:102EC00006600FE745F0400023464FF008026060BF
:102ED000A80716D41EE040F60E0125EA0100606046
:102EE00016E045F0400023464FF00A026060A80754
:102EF00007D40FE045F040006060A80708D52346DE
:102F000010220D996FF00100AFF3008080E007E020
:102F1000102223460D996FF00100FEF73BFE77E08B
:102F20004FF0000963284F46C8464B46CB4602D0B7
:102F30005B2806D038E0E80601D40120A060012714
:102F400032E06269D4F80CB00B98012190475E28FA
:102F500007D14FF0010949466269D4F80CB00B98CB
:102F60009047216939B900210A4603AB43F8212073
:102F7000491C0829FADBD8B3216949B308F10108D3
:102F800062690B98012190475D28F4D1B9F1000FD7
:102F900009D0002003A951F82020D24341F8202075
:102FA000401C0828F7DB03AB2069002820794FEA92
:102FB00040701ED05B462246CDF80080CDE90197D7
:102FC0000D9900286FF0010020DAAFF300801FE0B8
:102FD000C11703AA00EBD1614B1121F01F0102EBD5
:102FE0008302411A13680120884003431360C7E736
:102FF00019E00D99224600286FF00100009702DACF
:10300000AFF3008004E0FEF76BFE01E0AFF3008059
:1030100000280ADA401C06D10C9820B14FF0FF308E
:103020000FB0BDE8F08F5046FAE7E90701D10AF189
:10303000010A064400200C9054E60000CCCCCC0CD5
:103040002DE9F047814616468AB0354878440DC8C8
:103050008DE80D0032487844801C03AC0DC884E82C
:103060000D0041F69B300844372190FBF1F290FBB4
:10307000F1F5A5F1800501FB12041B3C02D5644269
:10308000012000E00020DFF898A080460027FA44E5
:10309000AAF1BE0A0EE0E0070AD03246684607EB06
:1030A000470101230AEB810136F0ABFF8DE80700F1
:1030B00064107F1C002CEED1194F7F44AE3F19E005
:1030C000E80715D007EB04100DF1180A90E80E0080
:1030D0008AE80E00C068F04201D198190890324683
:1030E000012306A903A836F08CFF03AB83E8070091
:1030F0006D10641C002DE3D14FF001033246694688
:10310000B8F1000F03A802D036F066FF01E036F0F8
:1031100078FFC9E90001C9F808200AB0BDE8F087C6
:10312000E87A040010B565485421FEF7B9FF6448F9
:103130005421FEF7B5FF63485421FEF7B1FF624802
:103140005E49624A624B01605D4810605D4A1A60E8
:10315000431C0B65511C01650120106557484C301C
:1031600014F07AFE56484C3014F076FE55484C3038
:1031700014F072FE574814F06FFE58484F4A56A19B
:10318000784400F051FB20B9544878440A3800F0E4
:10319000E1FB54484A4A52A1784400F045FB20B96B
:1031A000504878440A3800F0D5FB4F48454A4CA1B6
:1031B000784400F039FB20B94B4878440A3800F0D5
:1031C000C9FB40233D48DC000021224600F09EFA66
:1031D00020B142487844543800F0BCFB38482246BD
:1031E0004023002100F092FA20B13E487844543840
:1031F00000F0B0FB334822461023002100F086FA8D
:10320000002806D038487844BDE81040563800F011
:10321000A1BB10BD2B482DE9F041006D2D4E20F0D3
:1032200001043046AFF30080244D4C352846AFF3FF
:103230000080224800F044FA2846AFF30080284678
:10324000AFF300801E4D4C352846AFF300801C487C
:1032500000F036FA2846AFF300802846AFF300802E
:10326000184D4C352846AFF30080164800F028FA78
:103270002846AFF300802846AFF3008014E0206DAD
:1032800020F0010504F14C000746AFF30080204612
:1032900000F016FA3846AFF300803846AFF30080EE
:1032A0002046FEF74EF92C46002CE8D13046AFF30D
:1032B00000800848AFF30080BDE8F0816041001055
:1032C000B441001008420010EC040010F00400109B
:1032D000F4040010F804001072000000CC7904001F
:1032E00077000000B8790400A47904002DE9F041CA
:1032F0000646FFF7AEFB8046454613E016B1E06890
:10330000B0420ED120682860D4E90101D8F80070DD
:1033100088472046FEF715F9D8F80000B842EBD1EF
:1033200000E025462C68002CE8D1BDE8F08110B5FE
:1033300000F0F8FABDE8104000F0EFBA10B500F068
:1033400011FBBDE8104000F0E8BA70477546FEF783
:10335000AFF8AE4605006946534620F007008546A3
:1033600018B020B5FDF71EF9BDE820404FF000066B
:103370004FF000074FF000084FF0000BAC46ACE8F0
:10338000C009ACE8C009ACE8C009ACE8C00921F04C
:1033900007018D46704700002DE9F04F04460D46A9
:1033A000D21D22F0070089B0D0E90097484639467F
:1033B00038F05AFE0246F80F01D02D2307E02068AE
:1033C000810701D52B2302E0202101EAC0038DF8FB
:1033D00020300BB1012000E00020032A824601D0FA
:1033E000072A04DB29462046FFF79AFB3FE12078B5
:1033F000800601D40D2500E0E569C7F30A560D2DBE
:1034000049DA00214FEA175B08464FF00000002F11
:1034100000F4400007DA00EB80004FF4400100EBBD
:10342000D07001EA60008115012901DD4FF0FF3104
:1034300000224FEA850CBCF1180F06D31346ACF1FD
:1034400018004FF08052C24003E04FF4801323FA7B
:103450000CF30CF10C0CBCF1200F04D3ACF1200CDC
:1034600009FA0CF001E007FA0CF000294FF00048CF
:1034700001DD18B90FE00ED140450CD319EB02095C
:103480005F4121B9404502D19F4329EA0209BBEBC4
:10349000175F00D0761C2088000502D57B48784451
:1034A00002E07A487844193808AA302302F80A3032
:1034B000037C0AF10101002E0AF1020A53546A4604
:1034C00002DC4FF0300101E04FF031014FF0010814
:1034D0008DF8001002D0A6F2FF3603E059EA47014A
:1034E00000D06B4E002D02DC2178090704D54FF087
:1034F00002082E218DF80110C44600210BE0C7F30D
:1035000003433F01C35C491C6D1E02F808300529C6
:1035100008F1010801DA002DF1DC00210CE000EBDC
:103520001973491C1B786D1E082902F808304FEAF0
:10353000091908F1010801DA002DF0DC21688B0679
:1035400002D516E0A8F10108E04505DD02EB08030D
:1035500013F8013C302BF5D0B8F1000F09DD02EB78
:10356000080313F8013C2E2B03D1090701D4A8F15D
:103570000108002D05DD3E2102F808106D1E08F13E
:103580000108407C002E02F8080008F1010804DA66
:103590002D20764202F8080002E02B2002F80800F5
:1035A0000A214FF47A70864208F101080BDB96FB82
:1035B000F0F3303302F8083096FBF0F308F101081D
:1035C00000FB136601E0642E0CDB642096FBF0F335
:1035D000303302F8083096FBF0F308F1010800FBE5
:1035E000136601E00A2E06DB96FBF1F0303002F89C
:1035F000080008F1010896FBF1F001FB1060303083
:1036000002F80800A16908F1010808EB050202EBC5
:103610000A00081AA0612078C00602D42046FEF7EE
:10362000C3F8216A08AE01EB0A00206204E0D4E985
:10363000012116F8010B9047BAF1010AF7D2207860
:10364000C00602D52046FEF7AFF86E4609E016F830
:10365000010B3E280FD0D4E901219047206A401C7D
:103660002062B8F10108F2D22046FEF7B3F809B0A3
:103670000320BDE8F08F206A2844206203E0D4E9EB
:103680000121302090476D1EEBD3F8E7CD76040082
:1036900002FCFFFF10B5436913B1AFF3008001E0F6
:1036A000FFF77EFA012010BD128800F12401828408
:1036B0000022C2840122EDE711684FF0FF32E9E7F2
:1036C0002DE9F04704464FF0FF380026C568D4E9DD
:1036D0000497A80718D0204600F04CFB384600F0AD
:1036E00073F9002800DA4646280502D54846FDF75A
:1036F00028FF4C212046FEF7D3FC206D20F001006E
:1037000020653046BDE8F0874046FBE72DE9F047ED
:1037100004461E4690460D46C7684C308146AFF3BE
:103720000080B80714D0780212D44046B8F5807FE4
:1037300009D0B0F5007F06D0B8F5806F08D101261A
:1037400004F1240506E0701E6FF07F41884201D32A
:10375000012409E02561E6616560E06820F470609D
:1037600040EA0800E06000244846AFF300802046AD
:10377000BDE8F0872DE9F04716468846070010D0CF
:1037800006F14C008146AFF300803046FFF798FF0A
:1037900018F8010B61280DD0722805D0772841D187
:1037A00005E00020BDE8F0870125002405E00225A2
:1037B000042402E0082448F2020518F8010B2B2823
:1037C00006D0622809D018F8010C74280AD00BE042
:1037D00045F0030544F00204EFE745F0040544F02A
:1037E0000104EAE744F010043846214600F0E2F80C
:1037F000411C17D00021316171604FF40071F560F8
:10380000F1617061200704D530460222002100F0EA
:10381000F5F9306D40F0010030654846AFF30080A7
:103820003046BFE70026F8E72DE9F04115460E4681
:103830000746214C2046AFF300802A4631463846E1
:10384000FFF798FF05462046AFF300802846BDE805
:10385000F0812DE9F0410E468046174D2846AFF322
:103860000080164C206DC10704D0410804D020F020
:103870000104F7E7224612E05420FEF70FFD07008F
:1038800017D0206D47F001010843542120653846C8
:10389000FEF706FC07F14C0014F0DEFA3A4631461A
:1038A0004046FFF767FF04462846AFF300802046F6
:1038B000CDE70024F8E70000F80400106041001094
:1038C0002DE9F04116460C460546FFF7B5F80368AA
:1038D00093F80101012807D0FF2C12D8185D80B1A0
:1038E00001202C70BDE8F081D3F807013246214653
:1038F00003F20713C7182846BC46BDE8F041002371
:1039000060474FF0FF30EDE710B50446AFF300809D
:103910002046BDE81040FCF758BD002801D0FFF755
:1039200085B8704710B5002102A000F067FA0120A9
:1039300010BD0000534947414252543A2041626E43
:103940006F726D616C207465726D696E6174696F00
:103950006E00000010B500F06BFABDE81040FFF7F4
:10396000DCBF000010B5012805D0002103A000F045
:1039700045FA012010BD09A1F8E70000534947525C
:10398000544D454D3A204F7574206F66206865612F
:1039900070206D656D6F7279000000003A204865F7
:1039A0006170206D656D6F727920636F72727570D2
:1039B000746564000EB5CDE90001FEF732FA02909D
:1039C00069460120ABBE0EBD08B5694600900220D5
:1039D000ABBE08BD1FB58DE8070069460520ABBE2C
:1039E00004B010BD1FB58DE80F0069460620ABBEC0
:1039F000F6E708B5694600900920ABBE08BD1CB5C6
:103A0000CDE9000169460A20ABBE1CBD704708B570
:103A1000694600900C20ABBE08BD2DE9F05F05465D
:103A200017460C46C86820F4201040F48000C86097
:103A3000800602D5084600F0C0F9E06841F2820134
:103A40004FF0FF3A0140022903D0204600F052F91E
:103A5000B9E000F42041B1F5004F0FD1C00306D505
:103A60006168E06A884200D80846606006E0206924
:103A7000E06260606069FFF7CAFFA061A068002291
:103A8000EEB200280DDAE1688B050AD4C043A060CD
:103A900041F490302260E0606068411C6160067013
:103AA000AAE0E0689146226040F40050E06020699E
:103AB00078BB6069FFF79DFF04F124054FF0010812
:103AC000A8B1A08910F4407F08D0E069FEF7E6FBBA
:103AD000206118B1E06840F4006017E0C4F81C8071
:103AE0002561E06820F4407040F480600EE0E069F9
:103AF000FEF7D4FB00282061F0D0E06840F40060BD
:103B000010F4407FE06002D140F48070E0602069F2
:103B10006060E06825696FF0010BC1051ED5616822
:103B2000E06A884200D80846411B04D02246284655
:103B300000F0EAF8E8BB1FB1E562C4E9015959E0B9
:103B4000681CE0626060E069401EA060E06840F4CC
:103B50008030E06030462E70BDE8F09F17B100F471
:103B600080320AE06068411C61600670E0680A2EDD
:103B700040F48030E06006D00022E16A6068814253
:103B800003D90B4602E00122F7E70346B4F80CC064
:103B90005B1B5FEA4C5C04D4D4F81CC09C4500DD80
:103BA00002B3814200D80146002BA1EB0008E56278
:103BB00000E008E0C4E9015907DD2246194628461D
:103BC00000F0A2F808B15046C6E7B8F1000F09D0DE
:103BD000A169E5626560A1EB0800A061E06840F0C2
:103BE0001000E06047B16168A069E562491B0844C4
:103BF0006560A0615846AFE73046ADE72DE9F0417A
:103C0000044616460D464769007B80072ED038468D
:103C1000FFF7EFFE50BB3EB3012E02D0022E25D19E
:103C200004E0204600F046F905441DE03846FFF761
:103C3000EEFEE168002841F01001E16005DA20465F
:103C400000F058F80120BDE8F081C9030BD5626887
:103C5000E16A914200D81146A26911442269891A89
:103C6000814200DD08460544002D01DA0220EAE722
:103C7000E16A6068E268814206D29103E06203D59E
:103C800022F4003141F01002A6690027AE4213DC95
:103C9000E16A814201D90B4600E0034603EB060CC2
:103CA0002369ACEB030CAC4506DD814201D98C469F
:103CB00000E084469C4505D1A760276042F02000C3
:103CC000A5620DE0AD1BE669AE1B8142A66000D97E
:103CD0000846C01A281A20605819606022F0200097
:103CE00003490840E060002084F84870ABE700001A
:103CF000BFCFD7FFC16821F4001141F08001C1603E
:103D000000218160016070472DE9F74F15460C4690
:103D10004FF0FF3B3848D768D2F814A0074209D0CB
:103D20005046A969FFF76BFE002819DB3248C043F3
:103D30000740EF604FF000496FF000484C4501D359
:103D4000464600E0264600993B4650463246FFF77D
:103D500041FEA96920F00042B21A1144A96128B1BC
:103D60002846FFF7C7FF5846BDE8FE8FA41BE5D1E4
:103D70000020F9E770B504460569C06A61688842A9
:103D800000D80846E16821F42011E160C90312D58A
:103D9000A84208D02246411B2846FFF7B5FF10B1C4
:103DA0004FF0FF3070BD0020E562C4E90150E068CB
:103DB00020F48030E060002070BD10B50446C0687B
:103DC00020F02000E060A16AA06988420DD0204662
:103DD000FFF7D0FFE06820F4405040F01000E060B2
:103DE000A06AA0612069E062606044F24001E0687E
:103DF0008843E06010BD00001000020070B5054669
:103E00000C460A2000E06D1C00F02CF835B1287833
:103E10000028F8D102E0641C00F024F814B12078E6
:103E20000028F8D1BDE870400A2000F01BB800005F
:103E300010B5014602A0FFF7E1FF012010BD000010
:103E400053494752545245443A2052656469726559
:103E500063743A2063616E2774206F70656E3A2038
:103E60000000000008B569468DF800000320ABBED5
:103E700008BD00002DE9F04114460D46074601F14A
:103E80004C063046AFF30080094B7B44224629465E
:103E90003846FEF72EFD0446287B000601D54FF07C
:103EA000FF343046AFF300802046BDE8F0810000CB
:103EB000E788030010B50146C268900703D090065A
:103EC00007D5886A0AE0FCF799F901210160881E8C
:103ED00010BD8B69486818440B69C01A91F84830C6
:103EE0001BB191F84910401A10BD1103FCD50028F0
:103EF000FADD401E10BD000004207146084202D0C9
:103F0000EFF3098001E0EFF30880816902F04EB819
:103F100010B518F07DFC18F075FC044646F20A4016
:103F2000C2F212300021C4E90001A16018F070FC57
:103F30002146BDE8104018F0B7BC000004207146CF
:103F4000084202D0EFF3098001E0EFF308808169B5
:103F500002F042B88C4645F28051C1F200010B6874
:103F600001461A7C58689B6A4A439A5C9C2312FB60
:103F70000300624603F080BD2DE9F04FA3B0044674
:103F800045F280502178C1F200000668481E0E28D4
:103F900086F850102ED80E94DFE800F0202C32085E
:103FA0002C2C2C2C2C2C082C2C3C120004F10C005A
:103FB00017F034F81090A07B00210F91242132E0FB
:103FC00004F10C0017F02AF8109017F029F82422B9
:103FD0000D92012201210F9227E000BF04F10C0095
:103FE00017F01CF800211090A07B0F9124210D9157
:103FF00001211AE0FF2086F8500023B0BDE8F08FC1
:10400000201D17F00BF81090A07900210F911C21B2
:1040100009E000BF04F11C0017F000F81090A07F29
:1040200000210F9134210D91022196F850207070DB
:10403000FF2A3070B07086F8491001F0A381002883
:10404000129600F0F7804FF40175D5244FF09808D0
:104050004FF089094FF0000A4FF0000B00272CE0C9
:1040600011F80A3002F0010203F0F8031A44129E1C
:1040700001F80A20F16A007811F80A2000F01E0009
:1040800002F00F0242EAC00001F80A0017F08EFAAF
:10409000119917F0ABFA316B0137485170780BF179
:1040A0004C0B05F51C75E4340AF5A27A08F59878EE
:1040B000874209F1980980F0BD801098F9B21191FA
:1040C00016F0AAFF817801F0E001202906D1012134
:1040D000415C01390C290BD918E000BF017901F0CE
:1040E000E001202912D10321415C01390C290DD8AE
:1040F000DFE801F0080C164C0C0C501A2E32086642
:10410000620000BFF16C01235CE000BFF16C012391
:1041100001EB0B0282F83D3001F80B3059E000BF93
:10412000F16C03234EE000BFF16C4FF0010C0A1953
:1041300002F8D5CC0BEB4B020A44002382F83D3049
:1041400082F84CC082F8893082F898C00B5540E064
:10415000F16C092336E000BFF16C4FF0010E01EB6A
:10416000080201EB8B034FF0000C02F898EC83F887
:104170003DC083F84CE083F889C001F808E083F87B
:10418000D5C083F8E4E082F889C022E0F16C042312
:1041900018E000BFF16C4FF0010C01EB090202F8CE
:1041A00089CC01EB4B02002382F83D3082F84CC0F1
:1041B00001F809300DE000BFF16C0D2302E000BFF3
:1041C000F16C0C2301EB0B0201F80B30002182F89B
:1041D0003D1096F84920F16A961EB6FA86F6012A35
:1041E00001EB0A034FEA561618BF7200012A5A70F3
:1041F00014D0129E022A41F0C58011F80A2002F064
:10420000F802023201F80A20F16A007811F80A2057
:1042100002F00F0242EA001036E700BF0F9B02785F
:10422000002B3FF41DAF129E01F80A202EE700BFBD
:1042300000000000DDE90D10461845F28050C1F283
:104240000000046830787178B0F1FF07B278F37835
:1042500018BF07463846B94288BF0846FF2908BF3D
:1042600038460146824288BF1146FF2A08BF0146F0
:1042700008468B4288BF1846FF2B08BF0846411CE2
:10428000D6F8C400656CA17016F0B4FC2968D6F8A5
:10429000C80081ED000A16F0ADFC2968D6F8CC0004
:1042A00081ED010A16F0A6FC2968D6F8D00081ED50
:1042B000020A16F09FFC2968D6F8D40081ED030AA3
:1042C00016F098FC2968D6F8D80081ED040A16F09B
:1042D00091FC2968D6F8DC0081ED050A16F08AFC0D
:1042E0006968D6F8E00081ED000A16F083FC696881
:1042F000D6F8E40081ED010A16F07CFC6968D6F876
:10430000E80081ED020A16F075FC6968D6F8EC0049
:1043100081ED030A16F06EFC6968D6F8F00081EDB5
:10432000040A16F067FC6968D6F8F40081ED050A06
:1043300016F060FCA968D6F8F80081ED000A16F0C6
:1043400059FCA968D6F8FC0081ED010A16F052FC70
:10435000A968D6F8000181ED020A16F04BFCA968A5
:10436000D6F8040181ED030A16F044FCA968D6F8DA
:10437000080181ED040A16F03DFCA968D6F80C018D
:1043800081ED050A16F036FCE968D6F8100181EDDA
:10439000000A16F02FFCE968D6F8140181ED010A35
:1043A00016F028FCE968D6F8180181ED020A16F02B
:1043B00021FCE968D6F81C0181ED030A16F01AFC0D
:1043C000E968D6F8200181ED040A16F013FCE868CC
:1043D00006F1440180ED050AA06B0BF03BFF606B1A
:1043E00006F1840529460E960BF034FFE06B294652
:1043F0000BF030FFD4E90F054FF0000A01682F6879
:104400000A686E681392C7F800A04A68436814925D
:10441000C7F804A08A68AB461592C7F808A0C96817
:104420001FED7D1A1691C7F80CA019680DF14C0EFE
:104430001791C6F800A05968BFEE000A1891C6F897
:1044400004A099684FF000081991C6F808A0D9682F
:104450000F941A918168C6F80CA00A68AB681B9289
:10446000C3F800A04A680D971C92C3F804A08A689C
:104470000C961D92C3F808A0C9680B931E91C168E1
:10448000C3F80CA00A685BF80C0F1F92C0F800A0DC
:104490004A680A902092C0F804A08A682192C0F865
:1044A00008A0C96822914FF07E513960716099600F
:1044B000C160002109E000BF10310BF1040B0AF1CB
:1044C000140A3029984600F093810EEB0A0999ED01
:1044D000002A444622EE023AB5EE403AF1EE10FAD6
:1044E000D8BF4FF0FF34302908F101033AD099EDDD
:1044F000044AB5EE403AB0EE412AF1EE10FAC8BFD8
:10450000B0EE432A24EE043AB4EE423AF1EE10FA49
:10451000C8BF1C46202925D099ED084AB4EE423A7E
:10452000F1EE10FAC8BFB0EE432A24EE043AB4EE1E
:10453000423AF1EE10FAC8BF08F10204102911D076
:1045400099ED0C4AB4EE423AF1EE10FAC8BFB0EE63
:10455000432A24EE043AB4EE423AF1EE10FAC8BF10
:1045600008F10304621C00F0BC835BF80C7CA045DE
:104570002ED0200155F82420AC465EF801505EF89C
:10458000006011934EF801604EF8005010683E68CC
:104590000EEB01030EEB04143860166060685E6871
:1045A0005860666050687E6878605660A0689E6853
:1045B0009860A6609068BE68B8609660E068DE6843
:1045C000D860E660D068FB68F860D360119B6546F0
:1045D00099ED002A99ED043A80EE022A0EEB010CC7
:1045E0009CED004A9CED045A05EB88046268202982
:1045F00022EE033A23EE044A34EE054A8CED044AD7
:1046000097ED004A92ED005A23EE044A34EE054A33
:1046100082ED004A9CED014A9CED055A23EE044AC6
:1046200034EE054A8CED054A97ED014A92ED015AA8
:1046300023EE044A34EE054A82ED014A9CED024A1B
:104640009CED065A23EE044A34EE054A8CED064AE8
:1046500097ED024A92ED025A23EE044A34EE054ADF
:1046600082ED024A9CED034A9CED075A23EE044A70
:1046700034EE054A8CED074A97ED034A92ED035A52
:1046800023EE043A33EE053A82ED033A3FF414AFD9
:1046900099ED083A9CED004A22EE033A9CED085A47
:1046A00023EE044A34EE054AA2688CED084A97EDE1
:1046B000004A92ED005A23EE044A34EE054A82ED98
:1046C000004A9CED014A9CED095A23EE044A34EE5F
:1046D000054A8CED094A97ED014A92ED015A23EE05
:1046E000044A34EE054A82ED014A9CED024A9CEDF3
:1046F0000A5A23EE044A34EE054A8CED0A4A97ED35
:10470000024A92ED025A23EE044A34EE054A82ED43
:10471000024A9CED034A9CED0B5A23EE044A34EE08
:10472000054A8CED0B4A97ED034A92ED035A23EEAE
:10473000043A33EE053A102982ED033A3FF4BCAE59
:1047400099ED0C3A9CED0C4A22EE032A9CED003ABE
:10475000DBF8002022EE033A33EE043A8CED0C3AFB
:1047600097ED003A92ED004A22EE033A33EE043A16
:1047700082ED003A9CED013A9CED0D4A22EE033A9F
:1047800033EE043A8CED0D3A97ED013A92ED014A81
:1047900022EE033A33EE043A82ED013A9CED023AFE
:1047A0009CED0E4A22EE033A33EE043A8CED0E3ABB
:1047B00097ED023A92ED024A22EE033A33EE043AC2
:1047C00082ED023A9CED033A9CED0F4A22EE033A49
:1047D00033EE043A8CED0F3A97ED033A92ED034A2B
:1047E00022EE032A32EE042A82ED032A64E600BF99
:1047F0009DED221A9DED1E3A80EE011A9DED1F4A95
:104800009DED1B2A0A9B0B9A0C990D9821EE033AF9
:1048100023EE044A34EE022A8DED1B2A93ED002A82
:1048200092ED004A23EE022A32EE042A82ED002A9B
:104830009DED202A9DED1C4A23EE022A32EE042A29
:104840008DED1C2A93ED012A92ED014A23EE022AF6
:1048500032EE042A82ED012A9DED212A9DED1D4AAA
:1048600023EE022A32EE042A8DED1D2A93ED022A50
:1048700092ED024A23EE022A32EE042A82ED022A47
:104880009DED222A9DED1E4A23EE022A32EE042AD5
:104890008DED1E2A93ED032A92ED034A23EE022AA0
:1048A00032EE042A82ED032A9DED1A3A9DED1F4A4D
:1048B0009DED172A21EE033A23EE044A34EE022A34
:1048C0008DED172A93ED002A91ED004A23EE022A7E
:1048D00032EE042A81ED002A9DED202A9DED184A32
:1048E00023EE022A32EE042A8DED182A93ED012AD6
:1048F00091ED014A23EE022A32EE042A81ED012ACB
:104900009DED212A9DED194A23EE022A32EE042A5A
:104910008DED192A93ED022A91ED024A23EE022A27
:1049200032EE042A81ED022A9DED222A9DED1A4ADB
:1049300023EE022A32EE042A8DED1A2A93ED032A81
:1049400091ED034A23EE022A32EE042A81ED032A76
:104950009DED163A9DED1F4A9DED132A21EE031A97
:1049600021EE043A33EE022A8DED132A93ED002A4C
:1049700090ED003A21EE022A32EE032A80ED002A61
:104980009DED202A9DED143A21EE022A32EE032AF3
:104990008DED142A93ED012A90ED013A21EE022AC1
:1049A00032EE032A80ED012A9DED212A9DED153A74
:1049B00021EE022A32EE032A8DED152A93ED022A0A
:1049C00090ED023A21EE022A32EE032A80ED022A0D
:1049D0009DED222A9DED163A21EE022A32EE032A9F
:1049E0008DED162A93ED032A90ED033A21EE021A7B
:1049F00031EE031A80ED031A9DED1D1A9DED193A53
:104A000080EE011A9DED1B4A9DED172A21EE033A17
:104A100023EE044A34EE022A8DED172A92ED002A85
:104A200091ED004A23EE022A32EE042A81ED002A9B
:104A30009DED1C2A9DED184A23EE022A32EE042A2F
:104A40008DED182A92ED012A91ED014A23EE022AFA
:104A500032EE042A81ED012A9DED1D2A9DED194AB1
:104A600023EE022A32EE042A8DED192A92ED022A53
:104A700091ED024A23EE022A32EE042A81ED022A47
:104A80009DED1E4A9DED1A5A23EE044A34EE054A66
:104A90008DED1A4A92ED034A91ED035A23EE043A42
:104AA0009DED152A33EE053A81ED033A21EE021A07
:104AB0009DED1B2A9DED133A21EE022A32EE032AC8
:104AC0008DED132A92ED002A90ED003A21EE022A94
:104AD00032EE032A80ED002A9DED1C2A9DED143A4A
:104AE00021EE022A32EE032A8DED142A92ED012ADC
:104AF00090ED013A21EE022A32EE032A80ED012ADE
:104B00009DED1D2A9DED153A21EE022A32EE032A73
:104B10008DED152A92ED022A90ED023A21EE022A3D
:104B200032EE032A80ED022A9DED1E2A9DED163AF3
:104B300021EE022A32EE032A8DED162A92ED032A87
:104B400090ED033A21EE021A31EE031A80ED031ABA
:104B50009DED181A9DED173A80EE010A9DED141A8D
:104B60009DED132A20EE010A20EE031A31EE021AFF
:104B70008DED131A91ED001A90ED002A20EE011A26
:104B800031EE021A80ED001A9DED182A9DED143ABF
:104B900020EE022A32EE032A8DED142A91ED012A2D
:104BA00090ED013A20EE022A32EE032A80ED012A2E
:104BB0009DED192A9DED153A20EE022A32EE032AC8
:104BC0008DED152A91ED022A90ED023A9DED131A12
:104BD00020EE022A32EE032AB7EE003A83EE011AE3
:104BE00080ED022A9DED1A2A9DED164A20EE022A3A
:104BF00032EE042A8DED162A91ED032A90ED034A38
:104C000020EE020A30EE040A90ED002A90ED014AEF
:104C100090ED025A21EE022A21EE044A21EE055AB5
:104C200020EE010A80ED002A80ED014A80ED025A53
:104C300080ED030A9DED180A686883EE000A90ED86
:104C4000001A90ED012A90ED024A90ED035A20EEF1
:104C5000011A20EE022A20EE044A20EE050A80ED19
:104C6000001A80ED012A80ED024A80ED030A9DEDD5
:104C70001D0AA86883EE000A90ED001A90ED012A43
:104C800090ED024A90ED035A20EE011A20EE022A1E
:104C900020EE044A20EE050A80ED001A80ED012A7C
:104CA00080ED024A80ED030A9DED220AE86883EE5A
:104CB000000A90ED001A90ED012A90ED023A90ED75
:104CC000034A20EE011A20EE022A20EE033A20EEDB
:104CD000040A80ED001A80ED012A80ED023A80ED91
:104CE000030ADDF838B045F280589BF80000C1F2A5
:104CF0000008D8F80050FF2803D0696A0870296AB4
:104D000008709BF80100DDF840A0FF2803D0696A15
:104D10004870296A48709BF80200FF2803D0696A2E
:104D20008870296A88709BF80300DDF83C90FF28A2
:104D300003D0696AC870296AC870687880B3002691
:104D4000002003E0697801368E4229D20446F1B290
:104D5000504616F061F940782AF034FB012898BFDC
:104D600001201BF80610E2B250FA84F0631CAF6A0F
:104D7000DBB29842B954E5D9A21CAF6AD2B29042D4
:104D8000F954DFD9E31CAF6ADBB29842B954D9D9E0
:104D90000434AF6AE2B29042F954E7D8D2E700BFD8
:104DA00050460021002616F037F940782AF00AFB19
:104DB000012898BF01206978AA7828744843287090
:104DC000EAB10020E968421C0E54A9788A4214D244
:104DD000E968821C01444E70A9788A420DD2E968C4
:104DE000C21C01448E70A9788A4206D2E968014447
:104DF000CE70A97804308842E4D328780E460006A5
:104E00000FD00020A96AEA68095CEB69575C53F887
:104E100021307E1C5654D855297801308842F1D370
:104E2000AE784FF00000EEB1002100BFAA684B1C25
:104E30005054AA78934214D2AA688B1C0A4450702A
:104E4000AA7893420DD2AA68CB1C0A449070AA7823
:104E5000934206D2AA680A44D070AA7804319142DB
:104E6000E4D31046697899B1002000BF696AAA6846
:104E7000095CAB69575C53F821307E1C5654D855F9
:104E8000697801308842F1D3A87818B920E000BFD2
:104E90000021E8B100200021AA684B1C5054AA78D8
:104EA000934214D2AA688B1C0A445070AA78934289
:104EB0000DD2AA68CB1C0A449070AA78934206D2FD
:104EC000AA680A44D070AA7804319142E4D3697880
:104ED00071B10020296AAA68095C6B69575C53F8B4
:104EE00021307E1C5654D855697801308842F1D360
:104EF00099F8020000283DD00BF108040025002697
:104F000014F8020CD9F80410C0F301124819826396
:104F100014F8021C8909C16314F8031C01F0030191
:104F2000416314F8031CC1F38101016414F8031CEC
:104F3000C1F30111416414F8031C8909816414F858
:104F4000021C01F00301C16414F8021CC1F38101C9
:104F5000016514F8041CC1F3400180F86210214679
:104F600007F07AFA99F8020001369C35864204F17E
:104F70001004C5D3D8F8009099F80280B8F1000F5A
:104F800000F0B480D9F804E000234FF09C0C4FF4FB
:104F90001C7A4FF0010B03E00133434500F0A6807B
:104FA00003FB0CE090F86500012867D0032833D09C
:104FB0000228F1D1D9F80840E05C0028ECD0D9F8FB
:104FC0001400D9F8307050F823200021505C4D1C9B
:104FD00010FB0A7080F8E1B1E05C8542DCD2501829
:104FE00045788E1C15FB0A7585F8E1B1E55CAE428B
:104FF000D2D28578CE1C15FB0A7585F8E1B1E55C47
:10500000AE42C9D2C078043110FB0A7080F8E1B119
:10501000E05C8142DAD3BFE7D9F80840E05C0028C1
:10502000BAD0D9F81400D9F8307050F823200021F4
:10503000505C4D1C10FB0A7080F8E1B1E05C8542C9
:10504000AAD2501845788E1C15FB0A7585F8E1B177
:10505000E55CAE42A0D28578CE1C15FB0A7585F8BA
:10506000E1B1E55CAE4297D2C078043110FB0A7022
:1050700080F8E1B1E05C8142DAD38DE7D9F80840ED
:10508000E05C00283FF488AFD9F81400D9F83070FC
:1050900050F82320002100BF505C4E1C10FB0A700A
:1050A00080F8E1B1E05C8642BFF476AF50184678F4
:1050B0008D1C16FB0A7686F8E1B1E65CB542BFF4BA
:1050C0006BAF8578CE1C15FB0A7585F8E1B1E55C00
:1050D000AE42BFF461AFC078043110FB0A7080F8B3
:1050E000E1B1E05C8142D7D356E700BF129EB7EE34
:1050F000000A776CD7E90023384692ED001AB968A8
:10510000B4EE401A92ED011AF1EE10FAB5EE401A23
:1051100092ED021A08BF0020F1EE10FAB5EE401A27
:1051200092ED031A18BF3846F1EE10FAB5EE401AA8
:1051300092ED041A18BF3846F1EE10FAB5EE401A97
:1051400092ED051A18BF3846F1EE10FAB5EE401A86
:1051500092ED061A18BF3846F1EE10FAB5EE401A75
:1051600092ED071AFA6818BF3846F1EE10FAB5EE5C
:10517000401A93ED001A18BF3846F1EE10FAB5EE5A
:10518000401A93ED011A18BF3846F1EE10FAB4EE4A
:10519000401A93ED021A18BF3846F1EE10FAB5EE38
:1051A000401A93ED031A18BF3846F1EE10FAB5EE27
:1051B000401A93ED041A18BF3846F1EE10FAB5EE16
:1051C000401A93ED051A18BF3846F1EE10FAB5EE05
:1051D000401A93ED061A18BF3846F1EE10FAB5EEF4
:1051E000401A93ED071A18BF3846F1EE10FAB5EEE3
:1051F000401A91ED001A18BF3846F1EE10FAB5EEDC
:10520000401A91ED011A18BF3846F1EE10FAB5EECA
:10521000401A91ED021A18BF3846F1EE10FAB4EEBA
:10522000401A91ED031A18BF3846F1EE10FAB5EEA8
:10523000401A91ED041A18BF3846F1EE10FAB5EE97
:10524000401A91ED051A18BF3846F1EE10FAB5EE86
:10525000401A91ED061A18BF3846F1EE10FAB5EE75
:10526000401A91ED071A18BF3846F1EE10FAB5EE64
:10527000401A92ED001A18BF3846F1EE10FAB5EE5A
:10528000401A92ED011A18BF3846F1EE10FAB5EE49
:10529000401A92ED021A18BF3846F1EE10FAB5EE38
:1052A000401A92ED031A18BF3846F1EE10FAB4EE28
:1052B000401A92ED040A18BF3846F1EE10FAB5EE26
:1052C000400A92ED050A18BF3846F1EE10FAB5EE25
:1052D000400A92ED060A18BF3846F1EE10FAB5EE14
:1052E000400A92ED070A18BF3846F1EE10FAB5EE03
:1052F000400A18BF3846B178F1EE10FA18BF3846A8
:1053000000290E903ED07068DDF838B000256FF0AF
:105310009B0900BF09F19C0108441090D6E90DA03B
:1053200006F114070F90129898CF1191D6E9021246
:1053300054F825E0D6E90BC4D6F83C80066C1298E8
:1053400057F82570C06C53F82530CDE900E7CDE95A
:10535000040ADDE90F7029442A44CDE9086B129E46
:10536000CDE9024CCDF81880079701F029FF70684D
:10537000B278013500EB0901DDF84490954281F8DF
:105380009C50C7D323B0BDE8F08F00002DE9F04F4B
:1053900083B045F28056C1F2000637680446386B88
:1053A0004FF41C7804FB08000D46043000F01EFF8B
:1053B00030682946006B04FB0800643000F016FFDB
:1053C00030682946006B04FB0800643000F00EFFD3
:1053D00030684FF4A276C06A05F1500104FB060064
:1053E000943000F003FFF86A95F8BE1004FB060045
:1053F00004F086FCF86A05F1A40C04FB060095EDA8
:10540000270AD5ED280A9CE80E10D5F8B460CDE93E
:1054100000C605F04BFE386B5FFA84F904FB080008
:1054200049462A4601F060FA387CA8B34FF04C0A8E
:10543000002604FB0AFB4FF000081EE0387CF96CE4
:10544000D5F898200BFB001095ED300A3044494602
:1054500001F0DEFF45F28050C1F20000006895EDDA
:10546000310AC06C04FB0A0008F00EF9387C08F120
:105470000108804506F14C060ED297F85010042919
:10548000DDD1F96C604300FB0A10304408F05EF98E
:105490000028EBD1D2E700BF03B0BDE8F08F0000D9
:1054A00045F28052C1F2000212684FF41C73126B75
:1054B00000FB032004F008BC45F28053C1F2000356
:1054C0001B6800EE101AD3F830C04FF41C7300FBB9
:1054D00003C001EE102AB8EEC00AF8EEC10A01F0CE
:1054E00033BF0000F0B581B045F28056C1F200062E
:1054F00032680446106B4FF41C7704FB07000D461E
:10550000043000F073FE30682946006B04FB07008E
:10551000643001B0BDE8F04000F068BE0A4645F2D4
:105520008051C1F2000109684FF4A273C96A00FBFF
:105530000313C1B2184601F073BA000045F280525D
:10554000C1F2000212684FF4A273D26A00FB03207A
:1055500005F0A6BC10B582B045F28052C1F200023F
:1055600012684FF4A273D26A91EC020A00FB032086
:10557000D1E902C2D1E9043E8C696146CDE900E47B
:1055800005F094FD02B010BD45F28051C1F200015A
:1055900009684FF4A272C96A00FB021006F092BFBC
:1055A00045F28052C1F2000212684FF4A273D26A2F
:1055B00000FB032005F040BF00F094B870B545F241
:1055C0008054C1F200042268907858B1002500266A
:1055D0005068284400F022FF2268013690789C35FC
:1055E0008642F5D3D06A517892F84920BDE87040E0
:1055F00001F014BBF0B581B045F28056C1F200064F
:1056000032680446106B4FF41C7204FB02000D4616
:1056100021462A4601F0EEFD3068017CA1B1C06C44
:1056200061434C2201FB020005F14404002500BF48
:1056300000F14C0703F0B4FC316844F82500087C05
:10564000013585423846F3D301B0F0BD45F28052B2
:10565000C1F2000212684FF4A273D26A00FB032069
:1056600001F0EABDF0B581B045F28057C1F2000704
:1056700016463A680446106B4FF41C7204FB020095
:105680000D4604F0E1FA40B138684FF4A271C06AE7
:1056900004FB0100294604F037FB46B138684FF49B
:1056A000A271C06A04FB0100D0F89000286101B02B
:1056B000F0BD000070B545F28054C1F200042068CE
:1056C0008178002908BF70BD0025002640680D21A3
:1056D000284408F041F82068013681789C358E42D4
:1056E000F4D370BD2DE9F04381B045F28050C1F292
:1056F00000000468002C00F0358160780127A0705C
:10570000A06827740770206A00250570A06A4FF012
:105710007E560570606900680570606BE16B626CB5
:10572000096800680E6006604D6045608D608560A8
:10573000CD601168C560C1E90155C1E90355C1E9F2
:105740000555CD61206B0E6000F0CCFCE068077061
:10575000E06900680570A0684770206A4770A06A19
:105760004770606940680770606BE16B626C496804
:1057700040680D6005604E6046608D608560CD605C
:105780005168C560C1E90255C1E90455C1E9065532
:10579000206B0D6000F51C704E6000F0A3FCE0680B
:1057A0004FF002084770E06940680770A068877092
:1057B000206A80F80280A06A80F8028060698068B0
:1057C00080F80080606BE16B626C896880680D60B6
:1057D00005604D6045608E608660CD609168C560F3
:1057E000C1E90455C1E90655206BC1E9005500F532
:1057F0009C608E60CD6000F075FCE0684FF003099E
:105800008770E069806880F80080A068C770206AAF
:1058100080F80390A06A80F803906069C06880F8FF
:105820000090606BE16B626CC968C0680D600560D8
:105830004D6045608D608560CE60D168C660C1E90D
:105840000455C1E90655206BC1E9005500F5EA6031
:105850008D60CE6000F046FCE068C770E069C0680B
:1058600080F80090606A0570A06900680570216C7E
:10587000A26BE06A096812680E6016604D605560A0
:105880008D609560CD60D56000F088FC606A4770DF
:10589000A06940680770216CA26BE06A4968526891
:1058A00000F5A2700D6015604E6056608D609560C9
:1058B000CD60D56000F072FC606A80F80280A0695B
:1058C000806880F80080216CA26BE06A8968926829
:1058D00000F522700D6015604D6055608E60966019
:1058E000CD60D56000F05AFC606A80F80390A06932
:1058F000C06880F80090216CA26BE06AC968D26829
:1059000000F573700D6015604D6055608D60956099
:10591000CE60D66000F042FCE06C01F02FFCE06C41
:105920004C3001F02BFCE06C983001F027FCE06C6F
:10593000E43001F023FCE06C00F5987001F01EFCEF
:10594000E06C00F5BE7001F019FCE06C00F5E4704D
:1059500001F014FCE06C00F5057001F00FFCFF2075
:1059600084F8500001B0BDE8F0830000F0B581B0CC
:1059700045F28055C1F200052A68137C8BB10C46B4
:10598000D16C58434C2200FB02100026214600F146
:105990004C0702F021F828680136007C8642384620
:1059A000F4D301B0F0BD000045F28052C1F2000214
:1059B00012684FF4A273D26A00FB032006F07CBD8C
:1059C00045F28052C1F2000212684FF4A273D26A0B
:1059D00000FB032008F06EB845F28052C1F20002CD
:1059E00012684FF4A273D26A00FB032008F0D2BA07
:1059F00045F28052C1F2000212684FF4A273D26ADB
:105A000000FB032005F02EBD45F28052C1F20002DA
:105A100012684FF4A273D26A00FB0320943000F0A6
:105A2000E5BB000045F28051C1F2000109684FF466
:105A3000A272C96A00FB021005F044BBF0B581B048
:105A400045F28057C1F200073C680E4605465CB936
:105A50001AF0A4FA0421542201231AF0A9FA0446E8
:105A60000028386000F0A081042026706570A570C1
:105A700000F022FE60601AF091FA04210122042352
:105A80001AF096FAA0601AF089FA04210122042380
:105A90001AF08EFAE0601AF081FA0421042204233D
:105AA0001AF086FA60611AF079FA042104220423BC
:105AB0001AF07EFAA0611AF071FA0421042204237C
:105AC0001AF076FAE0611AF069FA0421012204233F
:105AD0001AF06EFA20621AF061FA042101220423FE
